:100000000C9462000C948A000C948A000C948A0070
:100010000C948A000C948A000C948A000C948A0038
:100020000C948A000C948A000C948A000C948A0028
:100030000C948A000C948A000C948A000C948A0018
:100040000C94B9060C948A000C9487060C946106F3
:100050000C948A000C948A000C948A000C948A00F8
:100060000C9403070C948A00000000002400270071
:100070002A0000000000250028002B0000000000DE
:1000800023002600290004040404040404040202DA
:100090000202020203030303030301020408102007
:1000A0004080010204081020010204081020000012
:1000B0000008000201000003040700000000000027
:1000C0000000670811241FBECFEFD8E0DEBFCDBF10
:1000D00011E0A0E0B1E0E4EFFCE102C005900D9278
:1000E000A23BB107D9F723E0A2EBB1E001C01D921A
:1000F000A533B207E1F710E0C2E6D0E004C02197D3
:10010000FE010E94720EC136D107C9F70E94B008E5
:100110000C94780E0C94000080E480937C00809115
:100120007A00806480937A0080917A0086FDFCCF0B
:100130008091780090917900089508950895DC01E8
:10014000ED91FC910190F081E02D0994AF92BF9266
:10015000CF92DF92EF92FF920F931F93CF93DF9393
:100160006C017B018B01040F151FEB015E01AE18C2
:10017000BF08C017D10759F06991D601ED91FC91E4
:100180000190F081E02DC6010995892B79F7C50111
:10019000DF91CF911F910F91FF90EF90DF90CF9063
:1001A000BF90AF900895FC01538D448D252F30E012
:1001B000842F90E0821B930B541710F0CF96089574
:1001C00001970895FC01918D828D981761F0A28DA1
:1001D000AE0FBF2FB11D5D968C91928D9F5F9F7367
:1001E000928F90E008958FEF9FEF0895FC01918D1D
:1001F000828D981731F0828DE80FF11D858D90E08A
:1002000008958FEF9FEF0895FC01918D228D892F26
:1002100090E0805C9F4F821B91098F73992708950E
:100220008FE792E00E94040121E0892B09F420E08D
:10023000822F089580E090E0892B29F00E94100120
:1002400081110C9400000895FC01A48DA80FB92F12
:10025000B11DA35ABF4F2C91848D90E001968F73EE
:100260009927848FA689B7892C93A089B1898C910D
:10027000837080648C93938D848D981306C002885C
:10028000F389E02D80818F7D80830895EF92FF9226
:100290000F931F93CF93DF93EC0181E0888F9B8DA9
:1002A0008C8D98131AC0E889F989808185FF15C063
:1002B0009FB7F894EE89FF896083E889F989808186
:1002C0008370806480839FBF81E090E0DF91CF9155
:1002D0001F910F91FF90EF900895F62E0B8D10E077
:1002E0000F5F1F4F0F731127E02E8C8D8E110CC0E6
:1002F0000FB607FCFACFE889F989808185FFF5CF31
:10030000CE010E942401F1CFEB8DEC0FFD2FF11DEA
:10031000E35AFF4FF0829FB7F8940B8FEA89FB896D
:1003200080818062CFCFCF93DF93EC01888D8823CB
:10033000B9F0AA89BB89E889F9898C9185FD03C048
:10034000808186FD0DC00FB607FCF7CF8C9185FF2D
:10035000F2CF808185FFEDCFCE010E942401E9CF4D
:10036000DF91CF910895833081F028F4813099F0A6
:100370008230A9F008958730A9F08830C9F0843020
:10038000B1F4809180008F7D03C0809180008F77D1
:1003900080938000089584B58F7784BD089584B5D7
:1003A0008F7DFBCF8091B0008F778093B000089550
:1003B0008091B0008F7DF9CF1F93CF93DF93282FCB
:1003C00030E0F901E255FF4F8491F901E656FF4F05
:1003D000D491F901EA57FF4FC491CC23A9F0162F0D
:1003E00081110E94B301EC2FF0E0EE0FFF1FEE58D9
:1003F000FF4FA591B4918FB7F894EC91111108C0FB
:10040000D095DE23DC938FBFDF91CF911F910895AC
:10041000DE2BF8CFCF93DF9390E0FC01E656FF4F41
:1004200024918A579F4FFC0184918823D1F090E05A
:10043000880F991FFC01E859FF4FA591B491FC0169
:10044000EE58FF4FC591D49161110EC09FB7F8943B
:100450008C91E22FE0958E238C932881E223E88310
:100460009FBFDF91CF9108958FB7F894EC91E22B65
:10047000EC938FBFF6CF3FB7F894809169029091CB
:100480006A02A0916B02B0916C0226B5A89B05C0D0
:100490002F3F19F00196A11DB11D3FBFBA2FA92F03
:1004A000982F8827BC01CD01620F711D811D911D00
:1004B00042E0660F771F881F991F4A95D1F708956C
:1004C0008F929F92AF92BF92CF92DF92EF92FF9264
:1004D0004B015C010E943B026B017C010E943B02CC
:1004E0006C197D098E099F09683E7340810591054D
:1004F000A8F321E0821A9108A108B10888EEC80E7D
:1005000083E0D81EE11CF11C81149104A104B10404
:1005100029F7FF90EF90DF90CF90BF90AF909F9022
:100520008F90089508952091F301260F3327331FEC
:1005300021323105ECF420913C02FC0190E080E096
:10054000243069F082E00895A091F3012191AC017B
:100550004D525E4FA40FB52FB11D2C9301968617F7
:1005600098F38091F301680F6093F30180E00895A0
:1005700081E0089510923C0281E080933B0210924A
:10058000160261E082E10E94DC0161E083E10E94E9
:10059000DC01E9EBF0E080818E7F808380818D7FBC
:1005A000808388E48093B80085E48093BC0008953C
:1005B000CF93DF9391E09093D2018823B9F0C0915B
:1005C000B800D091BA008091BC008A7B8093BC00B7
:1005D00060E082E10E94DC0160E083E10E94DC01D6
:1005E0000E94BA02D093BA00C093B800DF91CF91B5
:1005F00008950895E091740280917302E81730F431
:10060000F0E0EE54FE4F808190E008958FEF9FEF71
:10061000089590917402809173022FEF3FEF981725
:1006200048F4E92FF0E0EE54FE4F208130E09F5F68
:1006300090937402C901089580917302909174029D
:10064000891B990B0895CF92DF92EF92FF920F933F
:100650001F93CF93DF937C01CB018A01209142024B
:10066000222389F0EB016B01C40ED51ECC15DD05EC
:1006700069F06991D701ED91FC910190F081E02D35
:10068000C7010995F3CF642F0E949302C801DF913F
:10069000CF911F910F91FF90EF90DF90CF90089531
:1006A000CF93DF931F92CDB7DEB7698320914202CB
:1006B0002223F9F020917102203258F021E030E03D
:1006C000FC013383228390E080E00F90DF91CF9193
:1006D000089580917202E82FF0E0ED5BFD4F998163
:1006E00090838F5F809372028093710281E090E02B
:1006F000ECCF61E0CE0101960E949302F7CFCF923A
:10070000DF92EF92FF920F931F93CF93DF93FC0141
:10071000C48121E020934202C093630210927202CE
:10072000109271028485682B8CE193E00E94500343
:10073000D0917102D13208F092C00E943B026B014D
:100740007C0180913C02811165C082E080933C0273
:1007500081E080933B028FEF80933A02109239023E
:10076000D0933802A3E4B2E0E8E1F2E080E0D813ED
:1007700085C01092170280911702CC0FC82BC0932E
:10078000170280911602813009F07CC01092160287
:100790000E943B026B017C01809117028093BB0099
:1007A00080913E0290913F02A0914002B09141029F
:1007B000892B8A2B8B2B99F00E943B0200913E02E1
:1007C00010913F0220914002309141026C197D0945
:1007D0008E099F090617170728073907E0F180914E
:1007E000BC0083FDD9CF85EC8093BC000E943B0206
:1007F0006B017C0180913C02823009F445C08091FC
:100800003A028F3F61F180913A02803241F180914A
:100810003A0225C080913E0290913F02A091400291
:10082000B0914102892B8A2B8B2B09F48ACF0E942D
:100830003B0200913E0210913F0220914002309114
:1008400041026C197D098E099F09061717072807B1
:10085000390708F076CF80913D020E94D8021092AD
:1008600072021092710210924202DF91CF911F9199
:100870000F91FF90EF90DF90CF9008959D9191930D
:100880008F5F75CF85EEB0CF80913E0290913F0291
:10089000A0914002B0914102892B8A2B8B2B09F445
:1008A000A9CF0E943B0200913E0210913F0220918D
:1008B0004002309141026C197D098E099F0906178B
:1008C00017072807390708F095CFC5CF90E080E0DB
:1008D00008950F931F93CF938C01C62F0E947F031F
:1008E0006C2F6460C8010E947F036C2F6B7FC8016E
:1008F0000E947F0383EC90E00197F1F7CF911F9165
:100900000F9108950F931F93CF93DF938C01D62FF0
:10091000C42F607F642B0E94690480E1D89FB001DE
:1009200011246C2BC801DF91CF911F910F910C9472
:100930006904CF93DF93CDB7DEB728970FB6F8944D
:10094000DEBF0FBECDBF98E0E0E0F1E0DE01119622
:1009500001900D929A95E1F790913003961710F45B
:100960006FEF690F262F30E0220F331F41E050E078
:100970004C0F5D1F240F351FF9016081680F6068FF
:1009800040E088E293E028960FB6F894DEBF0FBEF1
:10099000CDBFDF91CF910C94820440E061E088E20A
:1009A00093E00E9482048BE39FE10197F1F780912D
:1009B0003103882321F060E080E00C9499040895CD
:1009C00041E00E94820481E090E00895FB010190E3
:1009D0000020E9F73197AF01461B570BDC01ED9181
:1009E000FC910280F381E02D09948F929F92AF9247
:1009F000BF92EF92FF920F931F93CF93DF93CDB7E8
:100A0000DEB7A1970FB6F894DEBF0FBECDBF7C0155
:100A1000FA01CB0119A2223008F42AE08E010F5D01
:100A20001F4F822E912CB12CA12CBF01A501940146
:100A30000E94500EF901CA016A300CF5605DD801C0
:100A40006E938D01232B242B252B79F790E080E0EA
:100A5000109721F0BD01C7010E94E604A1960FB6D0
:100A6000F894DEBF0FBECDBFDF91CF911F910F91E4
:100A7000FF90EF90BF90AF909F908F900895695C2A
:100A8000DECF2F923F924F925F926F927F928F9222
:100A90009F92AF92BF92CF92DF92EF92FF921F93FD
:100AA000CF93DF93EC016A017B01722EAB019601BB
:100AB000CB01B6010E944B0E68E371E0811126C0A4
:100AC00046015701E894B7F82FEF3FEF4FE75FE794
:100AD000C501B4010E944B0E81110CC02FEF3FEFF6
:100AE0004FE75FE7C501B4010E947A0C6CE371E047
:100AF000181664F02FEF3FEF4FE75FE4C701B60130
:100B00000E94D90D1816B4F460E471E0CE01DF91B3
:100B1000CF911F91FF90EF90DF90CF90BF90AF905B
:100B20009F908F907F906F905F904F903F902F900D
:100B30000C94E6042FEF3FEF4FE75FECC701B601DF
:100B40000E947A0C87FDE0CF20E030E0A901C701C8
:100B5000B6010E947A0C312C212C87FF09C06DE26E
:100B6000CE010E949F001C01F7FAF094F7F8F09470
:100B700010E060E070E080E09FE3711641F020E05B
:100B800030E040E251E40E947F0C1F5FF6CFA701E6
:100B900096010E940E0C2B013C010E94F80C4B01A7
:100BA0005C012AE0BC01A401CE010E94F5047C0195
:100BB000E20CF31C1123C1F1C501B4010E94270D01
:100BC0009B01AC01C301B2010E940D0C4B015C0101
:100BD0006EE2CE010E949F00E80EF91E115020F136
:100BE00020E030E040E251E4C501B4010E94DE0D96
:100BF0002B013C010E94F80C4B01B12CA12C2AE0E6
:100C0000B501A401CE010E94F504E80EF91EC5014C
:100C1000B4010E94270D9B01AC01C301B2010E94E7
:100C20000D0C4B015C01DACFC701DF91CF911F9111
:100C3000FF90EF90DF90CF90BF90AF909F908F90FC
:100C40007F906F905F904F903F902F9008950C94FD
:100C5000E60485ED8093BC0080913E0290913F02B6
:100C6000A0914002B09141020796A11DB11D23E061
:100C7000B695A795979587952A95D1F72091BC00B1
:100C800024FD03C010923C02089540913E02509111
:100C90003F026091400270914102452B462B472B49
:100CA00069F30097A105B10541F025E32A95F1F715
:100CB00000000197A109B109E1CF80913D020C9498
:100CC000D8021F920F920FB60F9211242F933F93C9
:100CD0004F935F936F937F938F939F93AF93BF9344
:100CE000EF93FF938FE792E00E942401FF91EF9131
:100CF000BF91AF919F918F917F916F915F914F9134
:100D00003F912F910F900FBE0F901F9018951F923B
:100D10000F920FB60F9211242F938F939F93EF93FF
:100D2000FF93E0918F02F09190028081E091950213
:100D3000F091960282FD1BC09081809198028F5F96
:100D40008F7320919902821741F0E0919802F0E0B0
:100D5000E158FD4F958F80939802FF91EF919F91FD
:100D60008F912F910F900FBE0F901F90189580813B
:100D7000F4CF1F920F920FB60F9211242F933F932F
:100D80008F939F93AF93BF9380916502909166027A
:100D9000A0916702B09168023091640223E0230FB2
:100DA0002D3758F50196A11DB11D20936402809343
:100DB000650290936602A0936702B09368028091E7
:100DC000690290916A02A0916B02B0916C02019647
:100DD000A11DB11D8093690290936A02A0936B02DA
:100DE000B0936C02BF91AF919F918F913F912F91E2
:100DF0000F900FBE0F901F90189526E8230F0296B4
:100E0000A11DB11DD2CF1F920F920FB60F921124C8
:100E10002F933F934F935F936F937F938F939F9302
:100E2000AF93BF93EF93FF938091B900887F803693
:100E300009F44AC0F0F5883209F4A7C018F58031EA
:100E400009F49BC0B8F4882309F4F9C0883009F488
:100E500094C0FF91EF91BF91AF919F918F917F913E
:100E60006F915F914F913F912F910F900FBE0F9017
:100E70001F901895883109F488C0803251F780930B
:100E80003A0214C0803409F49DC040F48033B9F3B1
:100E90008833F9F680933A0285ECB0C0803509F4C6
:100EA00085C0883509F496C0883499F60E942906D1
:100EB000D0CF883909F48CC038F5883729F050F440
:100EC000883611F0803729F683E080933C02109237
:100ED000150257C0883809F47BC0803919F0803872
:100EE00009F0B7CF80911502803208F071C0E0910F
:100EF000150281E08E0F809315028091BB00F0E017
:100F0000EB50FE4F80833DC0803B39F0E0F4803AE7
:100F100009F479C0883A09F09CCF84E080933C02C0
:100F20001092F4011092F301E0916F02F0917002BF
:100F300009958091F30181110FC081E08093F30145
:100F40001092D30109C0803C09F4A6CF883C09F473
:100F5000A3CF883B09F07DCFE091F40181E08E0FB3
:100F60008093F401F0E0ED52FE4F80818093BB004E
:100F70009091F4018091F30129C080911702809330
:100F8000BB0085EC8093BC0064CF909139028091C6
:100F90003802981758F5E091390281E08E0F80935E
:100FA0003902F0E0E85EFD4F8081E9CFE09139023F
:100FB00081E08E0F809339028091BB00F0E0E85E03
:100FC000FD4F808390913902809138029817C8F2C2
:100FD00085E8D8CFE091390281E08E0F8093390205
:100FE0008091BB00F0E0E85EFD4F808380913B0282
:100FF00081115CCF81E08093160284EA8093BC006B
:1010000010923C0226CF85EC8093BC0010923C02EB
:1010100080911502803230F4E0911502F0E0EB503F
:10102000FE4F10826091150270E0E0916D02F09128
:101030006E0285EF91E00995109215020ACF109289
:101040003A0234CFCF92DF92EF92FF920F931F9329
:10105000E82FF92F05C0015011092109310961F16B
:10106000908196239417B9F305C001501109210905
:10107000310911F1908196239413F7CFC12CD12C13
:10108000E12CF12C0AC08FEFC81AD80AE80AF80A36
:101090000C151D052E053F0579F0808186238417E8
:1010A00091F36C2D7D2D8E2D9F2D1F910F91FF9013
:1010B000EF90DF90CF90089560E070E080E090E0E6
:1010C0001F910F91FF90EF90DF90CF900895EFE781
:1010D000F2E01382128288EE93E0A0E0B0E0848315
:1010E0009583A683B7832CE031E03183208325EC00
:1010F00030E03587248724EC30E03787268720ECE2
:1011000030E0318B208B21EC30E0338B228B22ECD2
:1011100030E0358B248B26EC30E0378B268B118E1C
:10112000128E138E148EECE1F3E01382128284830C
:101130009583A683B7838EE191E091838083E8E273
:10114000F3E01382128280E391E091838083118621
:1011500087E2848380E1828782E083871486089512
:10116000789484B5826084BD84B5816084BD85B582
:10117000826085BD85B5816085BD80916E0081608E
:1011800080936E0010928100809181008260809334
:101190008100809181008160809381008091800036
:1011A0008160809380008091B10084608093B10061
:1011B0008091B00081608093B00080917A0084605B
:1011C00080937A0080917A00826080937A00809187
:1011D0007A00816080937A0080917A0080688093A1
:1011E0007A001092C1001092740210927302109251
:1011F0007202109271020E94BA028DE990E09093FF
:10120000700280936F028EE990E090936E0280935B
:101210006D0210922D0380913303823018F098E014
:1012200090932D038093300362E370E080E090E0C0
:101230000E9460026091340388E293E00E947F0381
:1012400068EE73E080E090E00E94600260E388E274
:1012500093E00E946904CBE4D6E4CE010197F1F754
:1012600060E388E293E00E9469042197F1F760E36C
:1012700088E293E00E94690483E592E00197F1F728
:1012800060E288E293E00E94690460912D0360624D
:1012900040E088E293E00E94820484E080932E0381
:1012A00040E06CE088E293E00E9482040E94CD045A
:1012B00012E010932F0340E066E088E293E00E9482
:1012C000820440E062E088E293E00E948204CBE383
:1012D000DFE1CE010197F1F788E08093340360E00D
:1012E00088E293E00E947F0340E062E088E293E0BE
:1012F0000E9482042197F1F761E085E00E940A02D2
:1013000060E086E00E940A0261E088E00E940A0232
:1013100061E08AE00E940A0261E089E00E940A021C
:1013200061E08BE00E940A0261E087E00E940A020D
:1013300060E084E00E940A0261E083E00E940A0209
:10134000E0918F02F09190021083E0918B02F09176
:101350008C021082E0918D02F0918E028FEC8083DE
:1013600010929702E0919302F091940286E08083BC
:10137000E0919102F0919202808180618083E091FE
:101380009102F0919202808188608083E0919102C5
:10139000F0919202808180688083E0919102F091C7
:1013A000920280818F7D808323E0E22EF12C33E254
:1013B000C32ED12C4EE9642E40E0742E5AE8852EBF
:1013C00050E0952E60E0A62E60E0B62E0E94CD047F
:1013D00064E471E088E293E00E94270668EE73E01F
:1013E00080E090E00E94600260E085E00E94DC0105
:1013F000C7010197F1F761E085E00E94DC01C601B9
:101400000197F1F760E085E00E94DC01E0EAF0E09E
:101410006491ECE8F0E08491E82FF0E0EE0FFF1F1C
:10142000E458FF4F8591949100E412E42FE030E0FE
:10143000462F0E942208611571058105910529F04A
:101440006F5F7F4F8F4F9F4F9F700E94290D26E93E
:1014500033E44BE05DE30E94DE0D20E030E040E04D
:101460005FE30E94DE0D0E94F10C70937E02609398
:101470007D020E948C00EC010E948C008C01BE0158
:10148000DD0F880B990B0E94290D20E030EC4FE70F
:1014900054E40E947F0C20E030E048EC52E40E94CB
:1014A000DE0D6093790270937A0280937B029093B1
:1014B0007C02B801110F880B990B0E94290D20E0C6
:1014C00030EC4FE754E40E947F0C20E030E04AEF1C
:1014D00053E40E94DE0D6093750270937602809350
:1014E00077029093780265E571E08FE792E00E94C1
:1014F00027066BE571E08FE792E00E942706409196
:10150000750250917602609177027091780222E024
:101510008FE792E00E9441056DE571E08FE792E070
:101520000E94E60460E671E08FE792E00E942706E1
:101530006BE571E08FE792E00E9427064091790207
:1015400050917A0260917B0270917C0222E08FE7D9
:1015500092E00E9441056DE571E08FE792E00E9404
:10156000E60465E671E08FE792E00E9427066BE5EE
:1015700071E08FE792E00E94270620907D02309074
:101580007E02032C000C440855082AE0B201A10198
:1015900057FE0DC06DE28FE792E00E949F00442746
:1015A0005527BA0142195309640975092AE08FE7E2
:1015B00092E00E94F5046DE571E08FE792E00E94F1
:1015C000E6046DE571E08FE792E00E94E60461E0D9
:1015D00080E00E94990469E871E088E293E00E944B
:1015E000270668E080E00E94990420907D023090F8
:1015F0007E02032C000C440855082AE0B201A10128
:1016000057FE0DC06DE288E293E00E949F004427E0
:101610005527BA0142195309640975092AE088E27D
:1016200093E00E94F5046BE080E00E9499044091F1
:10163000790250917A0260917B0270917C0222E0E3
:1016400088E293E00E9441056CE671E088E293E055
:101650000E9427066EE080E00E9499044091750286
:1016600050917602609177027091780222E088E2D0
:1016700093E00E9441056EE671E088E293E00E94EB
:10168000270661E081E00E94990480917D0290919B
:101690007E02883C910524F560E771E088E293E0E2
:1016A0000E94270661E088E00E94DC0161E087E09B
:1016B0000E94DC0161E083E00E94DC0160ED77E0E4
:1016C00080E090E00E946002A114B10409F47ECE93
:1016D0000E941001882309F479CE0E94000076CE82
:1016E0008C32F1E09F074CF460E871E088E293E00F
:1016F0000E94270661E08BE0D7CF803991406CF4DF
:101700006FE871E088E293E00E94270661E08AE0DA
:101710000E94DC0160E087E0CFCF60EA71E088E200
:1017200093E00E94270661E089E00E94DC0160E00E
:101730008AE00E94DC0160E08BE00E94DC0160E056
:1017400088E00E94DC0160E087E00E94DC0160E04C
:1017500083E00E94DC0120E030E048E452E4609144
:10176000790270917A0280917B0290917C020E94B2
:10177000D90D181674F461E08AE00E94DC0164EF70
:1017800071E080E090E00E94600260E08AE00E94E8
:10179000DC0120E030E040E252E46091750270919B
:1017A000760280917702909178020E94D90D1816E6
:1017B00074F461E08BE00E94DC0164EF71E080E092
:1017C00090E00E94600260E08BE00E94DC01E2EBAE
:1017D000F0E08491F301C491F401D491DD2309F484
:1017E0006DCF81110E94B301ED2FF0E0EE0FFF1FCE
:1017F000E458FF4FA591B4918C91C82309F45ECFB2
:1018000061E08BE00E94DC0164EF71E080E090E039
:101810000E94600260E08BE04FCF5058BB27AA27A0
:101820000E94250C0C949F0D0E94910D38F00E948F
:10183000980D20F039F49F3F19F426F40C948E0D86
:101840000EF4E095E7FB0C94880DE92F0E94B00D93
:1018500058F3BA17620773078407950720F079F4E5
:10186000A6F50C94D20D0EF4E0950B2EBA2FA02DF8
:101870000B01B90190010C01CA01A0011124FF273D
:10188000591B99F0593F50F4503E68F11A16F04038
:10189000A22F232F342F4427585FF3CF4695379537
:1018A0002795A795F0405395C9F77EF41F16BA0BFC
:1018B000620B730B840BBAF09150A1F0FF0FBB1FAA
:1018C000661F771F881FC2F70EC0BA0F621F731FF3
:1018D000841F48F4879577956795B795F7959E3F50
:1018E00008F0B0CF9395880F08F09927EE0F9795E1
:1018F000879508950E94640D08F481E008950E9480
:10190000930C0C949F0D0E94980D58F00E94910D1D
:1019100040F029F45F3F29F00C94880D51110C948C
:10192000D30D0C948E0D0E94B00D68F39923B1F382
:10193000552391F3951B550BBB27AA2762177307F5
:10194000840738F09F5F5F4F220F331F441FAA1F89
:10195000A9F335D00E2E3AF0E0E832D09150504045
:10196000E695001CCAF72BD0FE2F29D0660F771FF3
:10197000881FBB1F261737074807AB07B0E809F0D9
:10198000BB0B802DBF01FF2793585F4F3AF09E3F5E
:10199000510578F00C94880D0C94D30D5F3FE4F35F
:1019A000983ED4F3869577956795B795F7959F5FA1
:1019B000C9F7880F911D9695879597F90895E1E0ED
:1019C000660F771F881FBB1F621773078407BA074C
:1019D00020F0621B730B840BBA0BEE1F88F7E095A7
:1019E00008950E94F80C6894B1110C94D30D0895D9
:1019F0000E94B80D88F09F5798F0B92F9927B751DA
:101A0000B0F0E1F0660F771F881F991F1AF0BA95A2
:101A1000C9F714C0B13091F00E94D20DB1E0089521
:101A20000C94D20D672F782F8827B85F39F0B93F13
:101A3000CCF3869577956795B395D9F73EF4909555
:101A40008095709561957F4F8F4F9F4F0895E894D3
:101A500009C097FB3EF490958095709561957F4FF6
:101A60008F4F9F4F9923A9F0F92F96E9BB279395A4
:101A7000F695879577956795B795F111F8CFFAF4B4
:101A8000BB0F11F460FF1BC06F5F7F4F8F4F9F4FE5
:101A900016C0882311F096E911C0772321F09EE843
:101AA000872F762F05C0662371F096E8862F70E0A9
:101AB00060E02AF09A95660F771F881FDAF7880F83
:101AC0009695879597F90895990F0008550FAA0BD9
:101AD000E0E8FEEF16161706E807F907C0F0121641
:101AE0001306E407F50798F0621B730B840B950B44
:101AF00039F40A2661F0232B242B252B21F4089599
:101B00000A2609F4A140A6958FEF811D811D089535
:101B100097F99F6780E870E060E008959FEF80ECA0
:101B2000089500240A941616170618060906089543
:101B300000240A9412161306140605060895092EA9
:101B40000394000C11F4882352F0BB0F40F4BF2B18
:101B500011F460FF04C06F5F7F4F8F4F9F4F089558
:101B600057FD9058440F551F59F05F3F71F047954E
:101B7000880F97FB991F61F09F3F79F08795089533
:101B8000121613061406551FF2CF4695F1DF08C052
:101B9000161617061806991FF1CF8695710561056F
:101BA00008940895E894BB2766277727CB0197F917
:101BB00008950E94640D08F48FEF08950E94F10DBE
:101BC0000C949F0D0E94910D38F00E94980D20F00A
:101BD000952311F00C94880D0C948E0D11240C9407
:101BE000D30D0E94B00D70F3959FC1F3950F50E097
:101BF000551F629FF001729FBB27F00DB11D639FBF
:101C0000AA27F00DB11DAA1F649F6627B00DA11D64
:101C1000661F829F2227B00DA11D621F739FB00D0A
:101C2000A11D621F839FA00D611D221F749F33277A
:101C3000A00D611D231F849F600D211D822F762F13
:101C40006A2F11249F5750409AF0F1F088234AF0F0
:101C5000EE0FFF1FBB1F661F771F881F915050405C
:101C6000A9F79E3F510580F00C94880D0C94D30D7C
:101C70005F3FE4F3983ED4F3869577956795B795E3
:101C8000F795E7959F5FC1F7FE2B880F911D9695FD
:101C9000879597F908950E94640D880B990B089514
:101CA000A1E21A2EAA1BBB1BFD010DC0AA1FBB1F60
:101CB000EE1FFF1FA217B307E407F50720F0A21BD2
:101CC000B30BE40BF50B661F771F881F991F1A943F
:101CD00069F760957095809590959B01AC01BD0169
:101CE000CF010895EE0FFF1F0590F491E02D0994A8
:041CF000F894FFCF96
:101CF4000000400014005400000000004601A6004B
:101D0400D30093010401E200F60000000000500338
:101D140023036604F9021C030903FA02000000000D
:101D2400E004A600660492026E616E00696E6600AD
:101D34006F766600447261696E61676520436C6505
:101D4400616E65720054656D703A0009000D0A00F9
:101D54004761733A00446973743A20006F0063006A
:101D64004869676820436C6F67204C6576656C0032
:101D74004D696420436C6F67204C6576656C004147
:101D8400626F757420436C6F67204C6576656C00D8
:101D94005361666520447261696E204C6576656C9A
:021DA40000003D
:00000001FF
