:020000040000FA
:100000000C9462000C948A000C948A000C948A0070
:100010000C948A000C948A000C948A000C948A0038
:100020000C948A000C948A000C948A000C948A0028
:100030000C948A000C948A000C948A000C948A0018
:100040000C9489060C948A000C9457060C94310683
:100050000C948A000C948A000C948A000C948A00F8
:100060000C94D3060C948A000000000024002700A2
:100070002A0000000000250028002B0000000000DE
:1000800023002600290004040404040404040202DA
:100090000202020203030303030301020408102007
:1000A0004080010204081020010204081020000012
:1000B0000008000201000003040700000000000027
:1000C0000000370811241FBECFEFD8E0DEBFCDBF40
:1000D00011E0A0E0B1E0EAE5FDE102C005900D927B
:1000E000A63AB107D9F723E0A6EAB1E001C01D9214
:1000F000AD32B207E1F710E0C2E6D0E004C02197CC
:10010000FE010E94A50EC136D107C9F70E948008E2
:100110000C94AB0E0C94000008950895AF92BF921A
:10012000CF92DF92EF92FF920F931F93CF93DF93C3
:100130006C017B018B01040F151FEB015E01AE18F2
:10014000BF08C017D10759F06991D601ED91FC9114
:100150000190F081E02DC6010995892B79F7C50141
:10016000DF91CF911F910F91FF90EF90DF90CF9093
:10017000BF90AF900895FC01538D448D252F30E042
:10018000842F90E0821B930B541710F0CF960895A4
:1001900001970895FC01918D828D981761F0A28DD1
:1001A000AE0FBF2FB11D5D968C91928D9F5F9F7397
:1001B000928F90E008958FEF9FEF0895FC01918D4D
:1001C000828D981731F0828DE80FF11D858D90E0BA
:1001D00008958FEF9FEF0895FC01918D228D892F57
:1001E00090E0805C9F4F821B91098F73992708953F
:1001F00087E792E00E94EC0021E0892B09F420E0DF
:10020000822F089580E090E0892B29F00E94F80069
:1002100081110C9400000895FC01A48DA80FB92F42
:10022000B11DA35ABF4F2C91848D90E001968F731E
:100230009927848FA689B7892C93A089B1898C913D
:10024000837080648C93938D848D981306C002888C
:10025000F389E02D80818F7D80830895EF92FF9256
:100260000F931F93CF93DF93EC0181E0888F9B8DD9
:100270008C8D98131AC0E889F989808185FF15C093
:100280009FB7F894EE89FF896083E889F9898081B6
:100290008370806480839FBF81E090E0DF91CF9185
:1002A0001F910F91FF90EF900895F62E0B8D10E0A7
:1002B0000F5F1F4F0F731127E02E8C8D8E110CC016
:1002C0000FB607FCFACFE889F989808185FFF5CF61
:1002D000CE010E940C01F1CFEB8DEC0FFD2FF11D33
:1002E000E35AFF4FF0829FB7F8940B8FEA89FB899E
:1002F00080818062CFCFCF93DF93EC01888D8823FC
:10030000B9F0AA89BB89E889F9898C9185FD03C078
:10031000808186FD0DC00FB607FCF7CF8C9185FF5D
:10032000F2CF808185FFEDCFCE010E940C01E9CF95
:10033000DF91CF910895833081F028F4813099F0D6
:100340008230A9F008958730A9F08830C9F0843050
:10035000B1F4809180008F7D03C0809180008F7701
:1003600080938000089584B58F7784BD089584B507
:100370008F7DFBCF8091B0008F778093B000089580
:100380008091B0008F7DF9CF1F93CF93DF93282FFB
:1003900030E0F901E255FF4F8491F901E656FF4F35
:1003A000D491F901EA57FF4FC491CC23A9F0162F3D
:1003B00081110E949B01EC2FF0E0EE0FFF1FEE5821
:1003C000FF4FA591B4918FB7F894EC91111108C02B
:1003D000D095DE23DC938FBFDF91CF911F910895DD
:1003E000DE2BF8CFCF93DF9390E0FC01E656FF4F72
:1003F00024918A579F4FFC0184918823D1F090E08B
:10040000880F991FFC01E859FF4FA591B491FC0199
:10041000EE58FF4FC591D49161110EC09FB7F8946B
:100420008C91E22FE0958E238C932881E223E88340
:100430009FBFDF91CF9108958FB7F894EC91E22B95
:10044000EC938FBFF6CF8E50806480937C008091B8
:100450007A00806480937A0080917A0086FDFCCFD8
:10046000809178009091790008953FB7F894809139
:100470005D0290915E02A0915F02B091600226B58C
:10048000A89B05C02F3F19F00196A11DB11D3FBFCC
:10049000BA2FA92F982F8827BC01CD01620F711D9B
:1004A000811D911D42E0660F771F881F991F4A9595
:1004B000D1F708958F929F92AF92BF92CF92DF9221
:1004C000EF92FF924B015C010E9435026B017C01AF
:1004D0000E9435026C197D098E099F09683E7340A0
:1004E00081059105A8F321E0821A9108A108B108BD
:1004F00088EEC80E83E0D81EE11CF11C8114910423
:10050000A104B10429F7FF90EF90DF90CF90BF9046
:10051000AF909F908F90089508952091E701260F46
:100520003327331F21323105ECF420913002FC01D6
:1005300090E080E0243069F082E00895A091E70126
:100540002191AC0149535E4FA40FB52FB11D2C93DF
:100550000196861798F38091E701680F6093E70191
:1005600080E0089581E008951092300281E0809348
:100570002F0210920A0261E082E10E94C40161E050
:1005800083E10E94C401E9EBF0E080818E7F8083EB
:1005900080818D7F808388E48093B80085E4809398
:1005A000BC000895CF93DF9391E09093C601882318
:1005B000B9F0C091B800D091BA008091BC008A7B9C
:1005C0008093BC0060E082E10E94C40160E083E1AE
:1005D0000E94C4010E94B402D093BA00C093B80034
:1005E000DF91CF9108950895E091680280916702AC
:1005F000E81730F4F0E0EA55FE4F808190E008956E
:100600008FEF9FEF089590916802809167022FEF1E
:100610003FEF981748F4E92FF0E0EA55FE4F2081AC
:1006200030E09F5F90936802C9010895809167024E
:1006300090916802891B990B0895CF92DF92EF92F7
:10064000FF920F931F93CF93DF937C01CB018A011D
:1006500020913602222389F0EB016B01C40ED51ED6
:10066000CC15DD0569F06991D701ED91FC91019000
:10067000F081E02DC7010995F3CF642F0E948D0210
:10068000C801DF91CF911F910F91FF90EF90DF9004
:10069000CF900895CF93DF931F92CDB7DEB76983D4
:1006A000209136022223F9F020916502203258F081
:1006B00021E030E0FC013383228390E080E00F9062
:1006C000DF91CF91089580916602E82FF0E0E95C18
:1006D000FD4F998190838F5F8093660280936502BE
:1006E00081E090E0ECCF61E0CE0101960E948D02A6
:1006F000F7CFCF92DF92EF92FF920F931F93CF939A
:10070000DF93FC01C48121E020933602C09357029D
:1007100010926602109265028485682B84E193E052
:100720000E944A03D0916502D13208F092C00E9423
:1007300035026B017C0180913002811165C082E03D
:100740008093300281E080932F028FEF80932E02FE
:1007500010922D02D0932C02A7E3B2E0ECE0F2E07D
:1007600080E0D81385C010920B0280910B02CC0F51
:10077000C82BC0930B0280910A02813009F07CC023
:1007800010920A020E9435026B017C0180910B02DB
:100790008093BB008091320290913302A091340289
:1007A000B0913502892B8A2B8B2B99F00E94350250
:1007B00000913202109133022091340230913502BF
:1007C0006C197D098E099F09061717072807390735
:1007D000E0F18091BC0083FDD9CF85EC8093BC0013
:1007E0000E9435026B017C0180913002823009F455
:1007F00045C080912E028F3F61F180912E028032A0
:1008000041F180912E0225C08091320290913302F5
:10081000A0913402B0913502892B8A2B8B2B09F4DD
:100820008ACF0E943502009132021091330220914A
:100830003402309135026C197D098E099F09061723
:1008400017072807390708F076CF809131020E94F8
:10085000D202109266021092650210923602DF9167
:10086000CF911F910F91FF90EF90DF90CF9008955F
:100870009D9191938F5F75CF85EEB0CF80913202BD
:1008800090913302A0913402B0913502892B8A2BCA
:100890008B2B09F4A9CF0E943502009132021091EE
:1008A000330220913402309135026C197D098E0992
:1008B0009F09061717072807390708F095CFC5CFF6
:1008C00090E080E008950F931F93CF938C01C62F83
:1008D0000E9479036C2F6460C8010E9479036C2F19
:1008E0006B7FC8010E94790383EC90E00197F1F7D8
:1008F000CF911F910F9108950F931F93CF93DF9383
:100900008C01D62FC42F607F642B0E94630480E18A
:10091000D89FB00111246C2BC801DF91CF911F919A
:100920000F910C94630440E061E080E293E00E9448
:100930007C048BE39FE10197F1F7809129038823E1
:1009400031F040E060E880E293E00C947C0408958C
:1009500041E00E947C0481E090E00895FB01019059
:100960000020E9F73197AF01461B570BDC01ED91F1
:10097000FC910280F381E02D09948F929F92AF92B7
:10098000BF92EF92FF920F931F93CF93DF93CDB758
:10099000DEB7A1970FB6F894DEBF0FBECDBF7C01C6
:1009A000FA01CB0119A2223008F42AE08E010F5D72
:1009B0001F4F822E912CB12CA12CBF01A5019401B7
:1009C0000E94830EF901CA016A300CF5605DD801FE
:1009D0006E938D01232B242B252B79F790E080E05B
:1009E000109721F0BD01C7010E94AE04A1960FB679
:1009F000F894DEBF0FBECDBFDF91CF911F910F9155
:100A0000FF90EF90BF90AF909F908F900895695C9A
:100A1000DECF2F923F924F925F926F927F928F9292
:100A20009F92AF92BF92CF92DF92EF92FF921F936D
:100A3000CF93DF93EC016A017B01722EAB0196012B
:100A4000CB01B6010E947E0E60E371E0811126C0E9
:100A500046015701E894B7F82FEF3FEF4FE75FE704
:100A6000C501B4010E947E0E81110CC02FEF3FEF33
:100A70004FE75FE7C501B4010E94AD0C64E371E08C
:100A8000181664F02FEF3FEF4FE75FE4C701B601A0
:100A90000E940C0E1816B4F468E371E0CE01DF91E9
:100AA000CF911F91FF90EF90DF90CF90BF90AF90CC
:100AB0009F908F907F906F905F904F903F902F907E
:100AC0000C94AE042FEF3FEF4FE75FECC701B60188
:100AD0000E94AD0C87FDE0CF20E030E0A901C70106
:100AE000B6010E94AD0C312C212C87FF0DC0E8818E
:100AF000F9810190F081E02D6DE2CE0109951C0194
:100B0000F7FAF094F7F8F09410E060E070E080E01D
:100B10009FE3711641F020E030E040E251E40E9492
:100B2000B20C1F5FF6CFA70196010E94410C2B016A
:100B30003C010E942B0D4B015C012AE0BC01A40189
:100B4000CE010E94BD047C01E20CF31C1123E1F1F3
:100B5000C501B4010E945A0D9B01AC01C301B20151
:100B60000E94400C4B015C01E881F9810190F08109
:100B7000E02D6EE2CE010995E80EF91E115020F12C
:100B800020E030E040E251E4C501B4010E94110EC2
:100B90002B013C010E942B0D4B01B12CA12C2AE012
:100BA000B501A401CE010E94BD04E80EF91EC501E5
:100BB000B4010E945A0D9B01AC01C301B2010E9415
:100BC000400C4B015C01DACFC701DF91CF911F913F
:100BD000FF90EF90DF90CF90BF90AF909F908F905D
:100BE0007F906F905F904F903F902F9008950C945E
:100BF000AE0485ED8093BC00809132029091330267
:100C0000A0913402B09135020796A11DB11D23E0D9
:100C1000B695A795979587952A95D1F72091BC0011
:100C200024FD03C010923002089540913202509189
:100C300033026091340270913502452B462B472BCD
:100C400069F30097A105B10541F02AE22A95F1F771
:100C500000C00197A109B109E1CF809131020C9444
:100C6000D2021F920F920FB60F9211242F933F932F
:100C70004F935F936F937F938F939F93AF93BF93A4
:100C8000EF93FF9387E792E00E940C01FF91EF91B1
:100C9000BF91AF919F918F917F916F915F914F9194
:100CA0003F912F910F900FBE0F901F9018951F929C
:100CB0000F920FB60F9211242F938F939F93EF9360
:100CC000FF93E0918702F09188028081E0918D028C
:100CD000F0918E0282FD1BC09081809190028F5F07
:100CE0008F7320919102821741F0E0919002F0E021
:100CF000E958FD4F958F80939002FF91EF919F915E
:100D00008F912F910F900FBE0F901F90189580819B
:100D1000F4CF1F920F920FB60F9211242F933F938F
:100D20008F939F93AF93BF938091590290915A02F2
:100D3000A0915B02B0915C023091580223E0230F36
:100D40002D3758F50196A11DB11D209358028093AF
:100D5000590290935A02A0935B02B0935C02809177
:100D60005D0290915E02A0915F02B09160020196D7
:100D7000A11DB11D80935D0290935E02A0935F025E
:100D8000B0936002BF91AF919F918F913F912F914E
:100D90000F900FBE0F901F90189526E8230F029614
:100DA000A11DB11DD2CF1F920F920FB60F92112429
:100DB0002F933F934F935F936F937F938F939F9363
:100DC000AF93BF93EF93FF938091B900887F8036F4
:100DD00009F44AC0F0F5883209F4A7C018F580314B
:100DE00009F49BC0B8F4882309F4F9C0883009F4E9
:100DF00094C0FF91EF91BF91AF919F918F917F919F
:100E00006F915F914F913F912F910F900FBE0F9077
:100E10001F901895883109F488C0803251F780936B
:100E20002E0214C0803409F49DC040F48033B9F31D
:100E30008833F9F680932E0285ECB0C0803509F432
:100E400085C0883509F496C0883499F60E94F90562
:100E5000D0CF883909F48CC038F5883729F050F4A0
:100E6000883611F0803729F683E0809330021092A3
:100E7000090257C0883809F47BC0803919F08038DE
:100E800009F0B7CF80910902803208F071C0E0917B
:100E9000090281E08E0F809309028091BB00F0E08F
:100EA000E751FE4F80833DC0803B39F0E0F4803A4B
:100EB00009F479C0883A09F09CCF84E0809330022D
:100EC0001092E8011092E701E0916302F091640250
:100ED00009958091E70181110FC081E08093E701BE
:100EE0001092C70109C0803C09F4A6CF883C09F4E0
:100EF000A3CF883B09F07DCFE091E80181E08E0F20
:100F00008093E801F0E0E953FE4F80818093BB00BD
:100F10009091E8018091E70129C080910B028093B4
:100F2000BB0085EC8093BC0064CF90912D02809132
:100F30002C02981758F5E0912D0281E08E0F8093D6
:100F40002D02F0E0E45FFD4F8081E9CFE0912D02BA
:100F500081E08E0F80932D028091BB00F0E0E45F72
:100F6000FD4F808390912D0280912C029817C8F23A
:100F700085E8D8CFE0912D0281E08E0F80932D027D
:100F80008091BB00F0E0E45FFD4F808380912F02F1
:100F900081115CCF81E080930A0284EA8093BC00D7
:100FA0001092300226CF85EC8093BC001092300264
:100FB00080910902803230F4E0910902F0E0E751BB
:100FC000FE4F10826091090270E0E0916102F091A1
:100FD000620289EE91E00995109209020ACF1092FF
:100FE0002E0234CFCF92DF92EF92FF920F931F9396
:100FF000E82FF92F05C0015011092109310961F1CC
:10100000908196239417B9F305C001501109210965
:10101000310911F1908196239413F7CFC12CD12C73
:10102000E12CF12C0AC08FEFC81AD80AE80AF80A96
:101030000C151D052E053F0579F080818623841748
:1010400091F36C2D7D2D8E2D9F2D1F910F91FF9073
:10105000EF90DF90CF90089560E070E080E090E046
:101060001F910F91FF90EF90DF90CF900895E7E7E9
:10107000F2E01382128288EE93E0A0E0B0E0848375
:101080009583A683B78324E031E03183208325EC68
:1010900030E03587248724EC30E03787268720EC42
:1010A00030E0318B208B21EC30E0338B228B22EC33
:1010B00030E0358B248B26EC30E0378B268B118E7D
:1010C000128E138E148EE4E1F3E013821282848375
:1010D0009583A683B78386E191E091838083E0E2E4
:1010E000F3E01382128288E291E09183808311867B
:1010F00080E2848380E1828782E08387148608957A
:10110000789484B5826084BD84B5816084BD85B5E2
:10111000826085BD85B5816085BD80916E008160EE
:1011200080936E0010928100809181008260809394
:101130008100809181008160809381008091800096
:101140008160809380008091B10084608093B100C1
:101150008091B00081608093B00080917A008460BB
:1011600080937A0080917A00826080937A008091E7
:101170007A00816080937A0080917A008068809301
:101180007A001092C10010926802109267021092C9
:101190006602109265020E94B4028CE890E090937F
:1011A0006402809363028DE890E0909362028093E2
:1011B00061021092250380912B03823018F098E091
:1011C000909325038093280362E370E080E090E031
:1011D0000E945A0260912C0380E293E00E947903FE
:1011E00068EE73E080E090E00E945A0260E380E2E3
:1011F00093E00E946304CBE4D6E4CE010197F1F7BB
:1012000060E380E293E00E9463042197F1F760E3DA
:1012100080E293E00E94630483E592E00197F1F796
:1012200060E280E293E00E946304609125036062C3
:1012300040E080E293E00E947C0484E080932603F7
:1012400040E06CE080E293E00E947C040E94930402
:1012500012E01093270340E066E080E293E00E94F2
:101260007C0440E062E080E293E00E947C04CBE3F7
:10127000DFE1CE010197F1F788E080932C0360E075
:1012800080E293E00E94790340E062E080E293E034
:101290000E947C042197F1F761E085E00E94F20151
:1012A00060E086E00E94F20161E088E00E94F201C5
:1012B00061E08AE00E94F20161E089E00E94F201AF
:1012C00061E08BE00E94F20161E087E00E94F201A0
:1012D00060E084E00E94F20161E083E00E94F2019C
:1012E000E0918702F09188021083E0918302F091EF
:1012F00084021082E0918502F09186028FEC808357
:1013000010928F02E0918B02F0918C0286E0808334
:10131000E0918902F0918A02808180618083E0916E
:101320008902F0918A02808188608083E09189023D
:10133000F0918A02808180688083E0918902F09137
:101340008A0280818F7D80830E9493046CE371E028
:1013500080E293E00E94F70568EE73E080E090E0A1
:101360000E945A020E94930423E0E22EF12C33E201
:10137000C32ED12C42EB242E40E0342E5EE9452EC4
:1013800050E0552E6AE8662E60E0762E60E085E03B
:101390000E94C401C7010197F1F761E085E00E9456
:1013A000C401C6010197F1F760E085E00E94C40125
:1013B000E0EAF0E06491ECE8F0E08491E82FF0E0FE
:1013C000EE0FFF1FE458FF4F8591949100E412E463
:1013D0002FE030E0462F0E94F2076115710581056C
:1013E000910529F06F5F7F4F8F4F9F4F9F700E9435
:1013F0005C0D26E933E44BE05DE30E94110E20E032
:1014000030E040E05FE30E94110E0E94240D7093D3
:101410007602609375028EE00E9423028C018EE0BA
:101420000E9423024C018FE00E942302EC01B801CC
:10143000110F880B990B0E945C0D20E030EC4FE7F8
:1014400054E40E94B20C20E030E048EC52E40E94E8
:10145000110E6093710270937202809373029093E5
:101460007402B401990C880B990B0E945C0D20E06A
:1014700030EC4FE754E40E94B20C20E030E04AEF39
:1014800053E40E94110E60936D0270936E0280937C
:101490006F0290937002BE01DD0F880B990B0E94C2
:1014A0005C0D20E030EC4FE754E40E94B20C20E0E9
:1014B00030E048EC52E40E94110E60936902709390
:1014C0006A0280936B0290936C026DE471E087E78F
:1014D00092E00E94F70563E571E087E792E00E94E1
:1014E000F70540916D0250916E0260916F0270910C
:1014F000700222E087E792E00E94090565E571E04D
:1015000087E792E00E94AE0468E571E087E792E029
:101510000E94F70563E571E087E792E00E94F70516
:101520004091710250917202609173027091740245
:1015300022E087E792E00E94090565E571E087E710
:1015400092E00E94AE046DE571E087E792E00E94B0
:10155000F70563E571E087E792E00E94F705809068
:10156000750290907602092C000CAA08BB082AE0AC
:10157000B501A401B7FE0DC06DE287E792E00E94BD
:101580002E0144275527BA01481959096A097B09D0
:101590002AE087E792E00E94BD0465E571E087E7F5
:1015A00092E00E94AE0465E571E087E792E00E9458
:1015B000AE048090690290906A02A0906B02B09095
:1015C0006C0220E030E04CE052E4C501B4010E941E
:1015D000AD0C87FF29C02BE734E140EF51E4C50192
:1015E000B4010E940C0E1816FCF464E671E080E26F
:1015F00093E00E94F7054091690250916A02609160
:101600006B0270916C0222E080E293E00E94090577
:1016100061E088E00E94C40161E087E00E94C401AB
:1016200061E083E00E94C4018090690290906A02A8
:10163000A0906B02B0906C0220E030E040EF51E4EB
:10164000C501B4010E94AD0C87FF29C02BE734E12E
:1016500048EC51E4C501B4010E940C0E1816FCF4CC
:1016600064E771E080E293E00E94F705409169022F
:1016700050916A0260916B0270916C0222E080E2EC
:1016800093E00E94090561E08BE00E94C40161E0E3
:1016900087E00E94C40161E083E00E94C401809061
:1016A000690290906A02A0906B02B0906C0220E0F8
:1016B00030E048EC51E4C501B4010E94AD0C87FF55
:1016C00025C02BE734E140EA51E4C501B4010E9492
:1016D0000C0E1816DCF463E871E080E293E00E94DF
:1016E000F7054091690250916A0260916B02709116
:1016F0006C0222E080E293E00E94090561E08AE04A
:101700000E94C40160E087E00E94C40180906902E9
:1017100090906A02A0906B02B0906C0220E030E0E2
:1017200040EA51E4C501B4010E94AD0C87FF95C0A9
:1017300020E030E0A901C501B4010E940C0E18168A
:101740000CF08BC064E971E080E293E00E94F70541
:101750004091690250916A0260916B0270916C0233
:1017600022E080E293E00E94090561E089E00E94A6
:10177000C40160E08AE00E94C40160E08BE00E9446
:10178000C40160E088E00E94C40160E087E00E943C
:10179000C40160E083E00E94C40120E030E048E43E
:1017A00052E4609171027091720280917302909183
:1017B00074020E940C0E181674F461E08AE00E9414
:1017C000C40164EF71E080E090E00E945A0260E0A2
:1017D0008AE00E94C40120E030E040E252E46091DF
:1017E0006D0270916E0280916F02909170020E9462
:1017F0000C0E181674F461E08BE00E94C40164EFD3
:1018000071E080E090E00E945A0260E08BE00E946C
:10181000C401F1018491F201C491F301D491DD235B
:10182000E1F081110E949B01ED2FF0E0EE0FFF1F10
:10183000E458FF4FA591B4918C91C82371F061E0F9
:101840008BE00E94C40164EF71E080E090E00E94B0
:101850005A0260E08BE00E94C40160ED77E080E016
:1018600090E00E945A0280E090E0892B09F48ECD2E
:101870000E94F800882309F489CD0E94000086CDDB
:101880005058BB27AA270E94580C0C94D20D0E94D6
:10189000C40D38F00E94CB0D20F039F49F3F19F4AD
:1018A00026F40C94C10D0EF4E095E7FB0C94BB0DEF
:1018B000E92F0E94E30D58F3BA17620773078407F4
:1018C000950720F079F4A6F50C94050E0EF4E0953A
:1018D0000B2EBA2FA02D0B01B90190010C01CA01EA
:1018E000A0011124FF27591B99F0593F50F4503E95
:1018F00068F11A16F040A22F232F342F4427585F87
:10190000F3CF469537952795A795F0405395C9F79E
:101910007EF41F16BA0B620B730B840BBAF0915056
:10192000A1F0FF0FBB1F661F771F881FC2F70EC0F5
:10193000BA0F621F731F841F48F4879577956795C8
:10194000B795F7959E3F08F0B0CF9395880F08F0B4
:101950009927EE0F9795879508950E94970D08F4A3
:1019600081E008950E94C60C0C94D20D0E94CB0D0C
:1019700058F00E94C40D40F029F45F3F29F00C9408
:10198000BB0D51110C94060E0C94C10D0E94E30D79
:1019900068F39923B1F3552391F3951B550BBB279E
:1019A000AA2762177307840738F09F5F5F4F220FE3
:1019B000331F441FAA1FA9F335D00E2E3AF0E0E8DA
:1019C00032D091505040E695001CCAF72BD0FE2F24
:1019D00029D0660F771F881FBB1F261737074807B8
:1019E000AB07B0E809F0BB0B802DBF01FF27935870
:1019F0005F4F3AF09E3F510578F00C94BB0D0C946C
:101A0000060E5F3FE4F3983ED4F38695779567958D
:101A1000B795F7959F5FC9F7880F911D96958795A4
:101A200097F90895E1E0660F771F881FBB1F6217C3
:101A300073078407BA0720F0621B730B840BBA0B81
:101A4000EE1F88F7E09508950E942B0D6894B11160
:101A50000C94060E08950E94EB0D88F09F5798F0A5
:101A6000B92F9927B751B0F0E1F0660F771F881FA3
:101A7000991F1AF0BA95C9F714C0B13091F00E94BD
:101A8000050EB1E008950C94050E672F782F882776
:101A9000B85F39F0B93FCCF3869577956795B395E4
:101AA000D9F73EF490958095709561957F4F8F4F53
:101AB0009F4F0895E89409C097FB3EF49095809558
:101AC000709561957F4F8F4F9F4F9923A9F0F92F04
:101AD00096E9BB279395F695879577956795B79582
:101AE000F111F8CFFAF4BB0F11F460FF1BC06F5F68
:101AF0007F4F8F4F9F4F16C0882311F096E911C07A
:101B0000772321F09EE8872F762F05C0662371F09A
:101B100096E8862F70E060E02AF09A95660F771FAE
:101B2000881FDAF7880F9695879597F90895990F8A
:101B30000008550FAA0BE0E8FEEF16161706E80797
:101B4000F907C0F012161306E407F50798F0621BB8
:101B5000730B840B950B39F40A2661F0232B242B8D
:101B6000252B21F408950A2609F4A140A6958FEFAC
:101B7000811D811D089597F99F6780E870E060E0FE
:101B800008959FEF80EC089500240A941616170616
:101B900018060906089500240A941216130614065E
:101BA00005060895092E0394000C11F4882352F0C1
:101BB000BB0F40F4BF2B11F460FF04C06F5F7F4F79
:101BC0008F4F9F4F089557FD9058440F551F59F060
:101BD0005F3F71F04795880F97FB991F61F09F3F1A
:101BE00079F087950895121613061406551FF2CF43
:101BF0004695F1DF08C0161617061806991FF1CF93
:101C000086957105610508940895E894BB276627B9
:101C10007727CB0197F908950E94970D08F48FEF6D
:101C200008950E94240E0C94D20D0E94C40D38F029
:101C30000E94CB0D20F0952311F00C94BB0D0C9459
:101C4000C10D11240C94060E0E94E30D70F3959FB4
:101C5000C1F3950F50E0551F629FF001729FBB27A3
:101C6000F00DB11D639FAA27F00DB11DAA1F649F3F
:101C70006627B00DA11D661F829F2227B00DA11DF2
:101C8000621F739FB00DA11D621F839FA00D611D78
:101C9000221F749F3327A00D611D231F849F600D99
:101CA000211D822F762F6A2F11249F5750409AF0C2
:101CB000F1F088234AF0EE0FFF1FBB1F661F771F4E
:101CC000881F91505040A9F79E3F510580F00C9419
:101CD000BB0D0C94060E5F3FE4F3983ED4F386955B
:101CE00077956795B795F795E7959F5FC1F7FE2BB9
:101CF000880F911D9695879597F908950E94970DE5
:101D0000880B990B0895A1E21A2EAA1BBB1BFD019B
:101D10000DC0AA1FBB1FEE1FFF1FA217B307E407CA
:101D2000F50720F0A21BB30BE40BF50B661F771F22
:101D3000881F991F1A9469F7609570958095909502
:101D40009B01AC01BD01CF010895EE0FFF1F05906F
:101D5000F491E02D0994F894FFCF000000002E01CB
:101D60008E00BB007B01EC00CA00DE00000000001A
:101D70004A031D036004F30216030303F402000088
:101D80000000A8048E0060048C026E616E00696E13
:101D900066006F766600447261696E616765204314
:101DA0006C65616E65720054656D703A0009000DD6
:101DB0000A004761733A00446973743A2000486925
:101DC000676820436C6F67204C6576656C004D69D1
:101DD0006420436C6F67204C6576656C0041626FD0
:101DE000757420436C6F67204C6576656C00536199
:101DF000666520447261696E204C6576656C2000D2
:107E0000112484B714BE81FFF0D085E080938100F7
:107E100082E08093C00088E18093C10086E0809377
:107E2000C20080E18093C4008EE0C9D0259A86E02C
:107E300020E33CEF91E0309385002093840096BBD3
:107E4000B09BFECF1D9AA8958150A9F7CC24DD24C4
:107E500088248394B5E0AB2EA1E19A2EF3E0BF2EE7
:107E6000A2D0813461F49FD0082FAFD0023811F036
:107E7000013811F484E001C083E08DD089C08234E0
:107E800011F484E103C0853419F485E0A6D080C0E4
:107E9000853579F488D0E82EFF2485D0082F10E0AE
:107EA000102F00270E291F29000F111F8ED06801E7
:107EB0006FC0863521F484E090D080E0DECF843638
:107EC00009F040C070D06FD0082F6DD080E0C81688
:107ED00080E7D80618F4F601B7BEE895C0E0D1E017
:107EE00062D089930C17E1F7F0E0CF16F0E7DF06D8
:107EF00018F0F601B7BEE89568D007B600FCFDCFD4
:107F0000A601A0E0B1E02C9130E011968C91119780
:107F100090E0982F8827822B932B1296FA010C0160
:107F200087BEE89511244E5F5F4FF1E0A038BF0790
:107F300051F7F601A7BEE89507B600FCFDCF97BE46
:107F4000E89526C08437B1F42ED02DD0F82E2BD052
:107F50003CD0F601EF2C8F010F5F1F4F84911BD097
:107F6000EA94F801C1F70894C11CD11CFA94CF0C13
:107F7000D11C0EC0853739F428D08EE10CD085E9AC
:107F80000AD08FE07ACF813511F488E018D01DD067
:107F900080E101D065CF982F8091C00085FFFCCF94
:107FA0009093C60008958091C00087FFFCCF809118
:107FB000C00084FD01C0A8958091C6000895E0E648
:107FC000F0E098E1908380830895EDDF803219F02E
:107FD00088E0F5DFFFCF84E1DECF1F93182FE3DFCA
:107FE0001150E9F7F2DF1F91089580E0E8DFEE27F6
:047FF000FF270994CA
:027FFE00040479
:00000001FF
