:100000000C9462000C948A000C948A000C948A0070
:100010000C948A000C948A000C948A000C948A0038
:100020000C948A000C948A000C948A000C948A0028
:100030000C948A000C948A000C948A000C948A0018
:100040000C9479050C948A000C9447050C942105B6
:100050000C948A000C948A000C948A000C948A00F8
:100060000C94EA050C948A0000000000240027008C
:100070002A0000000000250028002B0000000000DE
:1000800023002600290004040404040404040202DA
:100090000202020203030303030301020408102007
:1000A0004080010204081020010204081020000012
:1000B0000008000201000003040700000000000027
:1000C0000000160B11241FBECFEFD8E0DEBFCDBF5E
:1000D00011E0A0E0B1E0E0EAFBE102C005900D9282
:1000E000A239B107D9F722E0A2E9B1E001C01D921F
:1000F000A63FB207E1F710E0C2E6D0E004C02197C6
:10010000FE010E94C30DC136D107C9F70E949807AE
:100110000C94CE0D0C940000DC01ED91FC9101904B
:10012000F081E02D0994CF92DF92EF92FF920F932E
:100130001F93CF93DF936C017A018B01C0E0D0E075
:10014000CE15DF0589F0D8016D918D01D601ED91B5
:10015000FC910190F081E02DC6010995892B11F4E5
:100160007E0102C02196ECCFC701DF91CF911F9194
:100170000F91FF90EF90DF90CF900895FC01538D89
:10018000448D252F30E0842F90E0821B930B541771
:1001900010F0CF96089501970895FC01918D828DFE
:1001A000981761F0828DDF01A80FB11D5D968C91CB
:1001B000928D9F5F9F73928F90E008958FEF9FEFD6
:1001C0000895FC01918D828D981731F0828DE80F92
:1001D000F11D858D90E008958FEF9FEF0895FC014C
:1001E000918D228D892F90E0805C9F4F821B910919
:1001F0008F739927089581E492E00E94EF0021E037
:10020000892B09F420E0822F0895FC01848DDF0101
:10021000A80FB11DA35ABF4F2C91848D90E0019679
:100220008F739927848FA689B7892C93A089B18968
:100230008C9180648C93938D848D981306C0028872
:10024000F389E02D80818F7D80830895EF92FF9266
:100250000F931F93CF93DF93EC0181E0888F9B8DE9
:100260008C8D981305C0E889F989808185FD24C0AB
:10027000F62E0B8D10E00F5F1F4F0F731127E02E2E
:100280008C8DE8120CC00FB607FCFACFE889F9890B
:10029000808185FFF5CFCE010E940501F1CF8B8DC6
:1002A000FE01E80FF11DE35AFF4FF0820B8FEA8940
:1002B000FB898081806207C0EE89FF896083E889BD
:1002C000F98980818064808381E090E0DF91CF9123
:1002D0001F910F91FF90EF900895CF93DF93EC0162
:1002E000888D8823C9F0EA89FB89808185FD05C056
:1002F000A889B9898C9186FD0FC00FB607FCF5CF90
:10030000808185FFF2CFA889B9898C9185FFEDCFD7
:10031000CE010E940501E7CFDF91CF91089580E0E3
:1003200090E0892B29F00E94FB0081110C940000C1
:100330000895833081F028F4813099F08230A1F063
:1003400008958730A9F08830B9F08430D1F48091D5
:1003500080008F7D03C0809180008F778093800024
:10036000089584B58F7702C084B58F7D84BD0895CC
:100370008091B0008F7703C08091B0008F7D809313
:10038000B00008951F93CF93DF93282F30E0F90139
:10039000E255FF4F8491F901E656FF4FD491F901E0
:1003A000EA57FF4FC491CC23C9F0162F81110E9448
:1003B0009901EC2FF0E0EE0FFF1FEE58FF4FA591D3
:1003C000B4918FB7F894111105C09C91ED2FE09571
:1003D000E92302C0EC91ED2BEC938FBFDF91CF911D
:1003E0001F910895CF93DF9390E0FC01E656FF4FF5
:1003F0002491FC01EA57FF4F8491882361F190E03A
:10040000880F991FFC01E859FF4FC591D491FC0159
:10041000EE58FF4FA591B491611109C09FB7F894B0
:100420008881209582238883EC912E230BC0623033
:1004300061F49FB7F8943881822F80958323888355
:10044000EC912E2B2C939FBF06C08FB7F894E881B8
:100450002E2B28838FBFDF91CF9108958E3008F027
:100460008E508770806480937C0080917A008064D5
:1004700080937A0080917A0086FDFCCF809178008D
:100480002091790090E0922B08953FB7F8948091E5
:10049000240290912502A0912602B091270226B550
:1004A000A89B05C02F3F19F00196A11DB11D3FBFAC
:1004B000BA2FA92F982F8827820F911DA11DB11D3A
:1004C000BC01CD0142E0660F771F881F991F4A9536
:1004D000D1F708958F929F92AF92BF92CF92DF9201
:1004E000EF92FF926B017C010E9445024B015C017F
:1004F000C114D104E104F104F1F00E944502DC01D1
:10050000CB0188199909AA09BB09883E9340A10526
:10051000B10570F321E0C21AD108E108F10888EEB4
:10052000880E83E0981EA11CB11CC114D104E10403
:10053000F10419F7DDCFFF90EF90DF90CF90BF90DF
:10054000AF909F908F90089585ED8093BC0080912F
:10055000BC0084FDFCCF10922A0208954091B401A2
:10056000262F30E0240F311D21323105DCF420919B
:100570002A022430C9F4FC0180E090E0861758F488
:100580003091B4012191DC01AE56BE4FA30FB11DD5
:100590002C930196F3CF8091B401680F6093B4015E
:1005A00080E0089581E0089582E00895089581E053
:1005B00090E030912E0220912D02321710F480E04D
:1005C00090E0919581959109089580912E029091E6
:1005D0002D02891730F48F5F80932E0280E090E027
:1005E00008958FEF9FEF089580912D0290E0209164
:1005F0002E02821B91090895CF92DF92EF92FF9213
:100600000F931F93CF93DF937C01262F972F8A019F
:100610008091FD01882391F0C62FD72F6E01C40E63
:10062000D51ECC15DD0571F06991D701ED91FC91D6
:100630000190F081E02DC7010995F3CF642F822F3F
:100640000E94AE02C801DF91CF911F910F91FF90E0
:10065000EF90DF90CF900895CF93DF931F92CDB7A7
:10066000DEB769832091FD012223D1F020912B0276
:10067000203240F021E030E0FC013383228380E02F
:1006800090E015C080912C02E82FF0E0E250FE4F80
:10069000998190838F5F80932C0280932B0205C0F9
:1006A00061E0CE0101960E94AE0281E090E00F90E1
:1006B000DF91CF910895CF93FC01C48121E0209375
:1006C000FD01C0931E0210922C0210922B02838512
:1006D000682B8EED92E00E942C0380912B028132D8
:1006E00008F046C090912A029111FCCF92E09093BD
:1006F0002A0291E0909329029FEF9093FC011092BF
:10070000FB018093FA01AEEFB1E02AED31E0F9018F
:100710009E2F921B981718F49D919193F9CF1092E8
:10072000D9018091D901CC0FC82BC093D9018091F8
:100730002802813061F4109228028091D9018093BF
:10074000BB008091BC0083FDF8CF85EC01C085EE35
:100750008093BC0080912A028230E1F38091FC01F9
:100760008F3F31F08091FC01803211F08091FC01CB
:1007700010922C0210922B021092FD01CF9108953D
:100780000F931F93CF938C01C62F0E945B036C2F96
:100790006460C8010E945B036C2F6B7FC8010E94DC
:1007A0005B0383EC90E00197F1F7CF911F910F91DC
:1007B0000895089580E090E008950E94C90D6115A4
:1007C000710579F0FB0101900020E9F73197AF0145
:1007D000461B570BDC01ED91FC910280F381E02D6B
:1007E000099480E090E008954F925F926F927F921B
:1007F000EF92FF920F931F93CF93DF93CDB7DEB7A6
:10080000A1970FB6F894DEBF0FBECDBF7C01FA01F1
:10081000CB0119A2223008F42AE08E010F5D1F4F90
:10082000422E512C612C712CBF01A30192010E9418
:10083000A10DF901CA01015011096A3014F4605D7B
:1008400001C0695CD8016C93232B242B252B61F705
:10085000B801C7010E94DF03A1960FB6F894DEBF6E
:100860000FBECDBFDF91CF911F910F91FF90EF9001
:100870007F906F905F904F9008954F925F926F922C
:100880007F928F929F92AF92BF92CF92DF92EF9220
:10089000FF92CF93DF93EC016A017B01B22E9A01A4
:1008A000AB01C701B6010E949C0D882319F068E3D3
:1008B00071E027C026013701E89477F82FEF3FEF6A
:1008C0004FE75FE7C301B2010E949C0D81110DC08B
:1008D0002FEF3FEF4FE75FE7C301B2010E94CB0B61
:1008E00018161CF46CE371E00CC02FEF3FEF4FE7DC
:1008F0005FE4C701B6010E942A0D18169CF460E45B
:1009000071E0CE01DF91CF91FF90EF90DF90CF901B
:10091000BF90AF909F908F907F906F905F904F901F
:100920000C94DF032FEF3FEF4FE75FECC701B601F9
:100930000E94CB0B87FDE3CF20E030E0A901C70187
:10094000B6010E94CB0B87FF0AC06DE2CE010E9468
:100950008C004C01F7FAF094F7F8F09402C0812C67
:10096000912CA12C60E070E080E09FE3AB1441F09B
:1009700020E030E040E251E40E94D00BA394F6CF97
:100980009B01AC01C701B6010E945F0B2B013C012A
:100990000E94490C6B017C010E94780C9B01AC0108
:1009A000C301B2010E945E0B2B013C012AE0B7019A
:1009B000A601CE010E94F4037C01E80CF91CBB20C7
:1009C00031F06EE2CE010E948C00E80EF91EDB2CA5
:1009D000DD2029F120E030E040E251E4C301B20122
:1009E0000E942F0D2B013C010E94490C4B01A12CB0
:1009F000B12C2AE0B501A401CE010E94F403E80E57
:100A0000F91EC501B4010E94780C9B01AC01C30121
:100A1000B2010E945E0B2B013C01DA94D9CFC701D1
:100A2000DF91CF91FF90EF90DF90CF90BF90AF908C
:100A30009F908F907F906F905F904F9008950C944F
:100A4000DF031F920F920FB60F9211242F933F9343
:100A50004F935F936F937F938F939F93AF93BF93C6
:100A6000EF93FF9381E492E00E940501FF91EF91E3
:100A7000BF91AF919F918F917F916F915F914F91B6
:100A80003F912F910F900FBE0F901F9018951F92BE
:100A90000F920FB60F9211242F938F939F93EF9382
:100AA000FF93E0915102F09152028081E091570250
:100AB000F091580282FD12C0908180915A028F5F9E
:100AC0008F7320915B02821751F0E0915A02F0E09F
:100AD000EF5BFD4F958F80935A0201C08081FF919B
:100AE000EF919F918F912F910F900FBE0F901F90BC
:100AF00018951F920F920FB60F9211242F933F93C8
:100B00008F939F93AF93BF93809120029091210286
:100B1000A0912202B091230230911F0223E0230F03
:100B20002D3720F40196A11DB11D05C026E8230F25
:100B30000296A11DB11D20931F0280932002909365
:100B40002102A0932202B09323028091240290916B
:100B50002502A0912602B09127020196A11DB11D88
:100B60008093240290932502A0932602B09327023B
:100B7000BF91AF919F918F913F912F910F900FBE99
:100B80000F901F901895FF920F931F93CF93DF93B1
:100B90001F92CDB7DEB78C01F62E962F907F692F6E
:100BA000642BC80149830E94C00380E1F89EB00114
:100BB00011244981642BC8010F90DF91CF911F91BF
:100BC0000F91FF900C94C00341E00E94C30581E0A7
:100BD00090E008951F920F920FB60F9211242F9359
:100BE0003F934F935F936F937F938F939F93AF93B5
:100BF000BF93EF93FF938091B900887F803609F40B
:100C00009CC068F5883209F45BC090F4803109F427
:100C100054C038F4882309F4F6C0883009F44DC074
:100C2000F6C0883109F44CC0803209F45DC0EFC0D1
:100C3000803409F468C048F4803309F455C088331F
:100C400009F0E5C08093FC01D8C0803509F44FC09D
:100C5000883509F45DC0883409F0D9C0D6C0883918
:100C600009F4C7C0A8F4883709F467C038F4883697
:100C700009F463C0803709F460C0C9C0883809F43A
:100C8000B8C0803909F45FC0803809F0C0C05BC0CB
:100C9000803B09F486C038F4803A09F466C0883A8B
:100CA00009F47FC0B4C0803C09F4A7C0883C09F4B3
:100CB000A4C0883B09F48AC0AAC08091D90110C0A1
:100CC0009091FB018091FA01981770F5E091FB017A
:100CD00081E08E0F8093FB01F0E0E652FE4F8081B1
:100CE0008093BB0085EC86C08093FC018EC0E091B0
:100CF000FB0181E08E0F8093FB018091BB00F0E04F
:100D0000E652FE4F80839091FB018091FA016EC004
:100D1000E091FB0181E08E0F8093FB018091BB008D
:100D2000F0E0E652FE4F80838091290281116DC070
:100D300081E08093280284EA61C083E080932A02E4
:100D40001092D801CFCF8091D801803208F051C0E5
:100D5000E091D80181E08E0F8093D8018091BB0093
:100D6000F0E0E854FE4F8083BDCF85EC8093BC005B
:100D700010922A028091D801803230F4E091D8019B
:100D8000F0E0E854FE4F10826091D80170E0E091ED
:100D9000B601F091B70188EB91E009951092D80166
:100DA00036C084E080932A021092B5011092B401FB
:100DB000E091B201F091B30109958091B4018111E4
:100DC00005C081E08093B40110929201E091B501D9
:100DD00081E08E0F8093B501F0E0EE56FE4F8081EA
:100DE0008093BB009091B5018091B401981708F4ED
:100DF00079CF85E88093BC000AC085EC8093BC0065
:100E000010922A0204C01092FC010E94A402FF91D9
:100E1000EF91BF91AF919F918F917F916F915F9172
:100E20004F913F912F910F900FBE0F901F901895EB
:100E300040E061E08AEE92E00E94C3058BE39FE10F
:100E40000197F1F70895CF93DF93CDB7DEB72897D9
:100E50000FB6F894DEBF0FBECDBF28E0E0E0F1E0B2
:100E6000DE01119601900D922A95E1F72091F20290
:100E7000261710F46FEF620FFE013196E60FF11D99
:100E8000E60FF11D9081682F690F606840E08AEEDF
:100E900092E028960FB6F894DEBF0FBECDBFDF916B
:100EA000CF910C94C305CF92DF92EF92FF920F93F4
:100EB0001F93E82FF92F05C00150110921093109AD
:100EC00061F1908196239417B9F305C0015011097F
:100ED0002109310911F1908196239413F7CFC12C88
:100EE000D12CE12CF12C0AC08FEFC81AD80AE80ADD
:100EF000F80A0C151D052E053F0579F08081862323
:100F0000841791F36C2D7D2D8E2D9F2D1F910F91A8
:100F1000FF90EF90DF90CF90089560E070E080E068
:100F200090E01F910F91FF90EF90DF90CF90089588
:100F3000789484B5826084BD84B5816084BD85B5B4
:100F4000826085BD85B5816085BD80916E008160C0
:100F500080936E0010928100809181008260809366
:100F60008100809181008160809381008091800068
:100F70008160809380008091B10084608093B10093
:100F80008091B00081608093B00080917A0084608D
:100F900080937A0080917A00826080937A008091B9
:100FA0007A00816080937A0080917A0080688093D3
:100FB0007A001092C10010922E0210922D0210920F
:100FC0002C0210922B0210922A0281E080932902B7
:100FD0001092280261E082E10E94C20161E083E197
:100FE0000E94C2018091B9008E7F8093B9008091E8
:100FF000B9008D7F8093B90088E48093B80085E4C0
:101000008093BC001092EF028091F402823018F0BD
:1010100098E09093EF028093F20262E370E080E048
:1010200090E00E946A026091F5028AEE92E00E94CE
:101030005B0368EE73E080E090E00E946A0260E388
:101040008AEE92E00E94C003CBE4D6E4CE01019781
:10105000F1F760E38AEE92E00E94C0032197F1F776
:1010600060E38AEE92E00E94C00383E592E001977C
:10107000F1F760E28AEE92E00E94C0036091EF0215
:10108000606240E08AEE92E00E94C30584E08093B3
:10109000F00240E06CE08AEE92E00E94C3050E94FC
:1010A000180712E01093F10240E066E08AEE92E049
:1010B0000E94C30540E062E08AEE92E00E94C30510
:1010C000CBE3DFE1CE010197F1F788E08093F502F1
:1010D00060E08AEE92E00E945B0340E062E08AEE0C
:1010E00092E00E94C3052197F1F761E085E00E943C
:1010F000F20160E086E00E94F20161E088E00E9477
:10110000F20161E08AE00E94F20161E089E00E9460
:10111000F20161E08BE00E94F20161E08DE00E944B
:10112000F20160E084E00E94F20161E083E00E944D
:10113000F201E0915102F09152021083E0914D02D0
:10114000F0914E021082E0914F02F09150028FEC2C
:10115000808310925902E0915502F091560286E088
:101160008083E0915302F0915402808180618083FA
:10117000E0915302F0915402808188608083E09175
:101180005302F0915402808180688083E091530281
:10119000F091540280818F7D80830E94180764E45F
:1011A00071E08AEE92E00E941F0568EE73E080E035
:1011B00090E00E946A020E94180723E0E22EF12CC0
:1011C00033E2C32ED12C40EA242E40E0342E5CE8DA
:1011D000452E50E0552E62EB662E60E0762E60E0E4
:1011E00085E00E94C201C7010197F1F761E085E047
:1011F0000E94C201C6010197F1F760E085E00E94FC
:10120000C201F1016491F2018491E82FF0E0EE0F48
:10121000FF1FE458FF4F8591949100E412E42FE002
:1012200030E0462F0E945307611571058105910535
:1012300049F0DC01CB010196A11DB11DBC01CD011E
:101240009F7003C060E070E0CB0160933D0270933B
:101250003E0280933F02909340020E947A0C26E95E
:1012600033E44BE05DE30E942F0D20E030E040E0EE
:101270005FE30E942F0D0E94420C70933C0260932A
:101280003B028EE00E942E025C018EE00E942E0244
:101290008C018FE00E942E02EC01B501BB0C880B83
:1012A000990B0E947A0C20E030EC4FE754E40E9446
:1012B000D00B20E030E048EC52E40E942F0D609308
:1012C0003702709338028093390290933A02B80142
:1012D000110F880B990B0E947A0C20E030EC4FE73D
:1012E00054E40E94D00B20E030E04AEF53E40E9427
:1012F0002F0D6093330270933402809335029093E4
:101300003602BE01DD0F880B990B0E947A0C20E09B
:1013100030EC4FE754E40E94D00B20E030E048EC82
:1013200052E40E942F0D60932F027093300280933D
:1013300031029093320265E571E081E492E00E940F
:101340001F056BE571E081E492E00E941F0540916A
:10135000330250913402609135027091360222E0DE
:1013600081E492E00E943D046DE571E081E492E049
:101370000E94DF0360E671E081E492E00E941F05B5
:101380006BE571E081E492E00E941F054091370215
:10139000509138026091390270913A0222E081E462
:1013A00092E00E943D046DE571E081E492E00E94CC
:1013B000DF0365E671E081E492E00E941F056BE5C2
:1013C00071E081E492E00E941F0540912F0250914C
:1013D0003002609131027091320222E081E492E0A9
:1013E0000E943D046DE571E081E492E00E94DF031C
:1013F0006DE571E081E492E00E94DF0360E080E04F
:101400000E9423076AE771E08AEE92E00E941F05BE
:1014100068E080E00E94230740913B0250913C022B
:101420004A01550FAA08BB08B7FE0EC06DE28AEE4E
:1014300092E00E948C0044275527BA0148195909A7
:101440006A097B092AE003C02AE0B501A4018AEEFB
:1014500092E00E94F4036BE080E00E942307409139
:101460003702509138026091390270913A0222E0BD
:101470008AEE92E00E943D046CE671E08AEE92E012
:101480000E941F056EE080E00E9423074091330216
:1014900050913402609135027091360222E08AEE5A
:1014A00092E00E943D046EE671E08AEE92E00E94B6
:1014B0001F0561E081E00E94230720E030E040E466
:1014C00050E460912F02709130028091310290912E
:1014D00032020E942A0D1816FCF460E771E08AEED1
:1014E00092E00E941F0540912F02509130026091BE
:1014F00031027091320222E08AEE92E00E943D04B5
:1015000061E088E00E94C20161E08DE00E94C201BA
:1015100061E083E00E94C20120E030E040E450E45A
:1015200060912F02709130028091310290913202CD
:101530000E94CB0B18160CF461C060E871E08AEED3
:1015400092E00E941F0540912F025091300260915D
:1015500031027091320222E08AEE92E00E943D0454
:1015600061E089E00E94C20160E08AE00E94C2015D
:1015700060E08BE00E94C20160E088E00E94C2014E
:1015800060E08DE00E94C20160E083E00E94C20141
:1015900020E030E040E252E4609133027091340286
:1015A00080913502909136020E942A0D181674F42B
:1015B00061E08BE00E94C20164EF71E080E090E0A6
:1015C0000E946A0260E08BE00E94C201F3018491F4
:1015D000EEE9F0E0D491EAE8F0E0C491CC2371F0B8
:1015E00081110E949901EC2FF0E0EE0FFF1FE458EB
:1015F000FF4FA591B4918C91D82349F460ED77E029
:1016000080E090E00E946A020E948F01E8CD61E0D4
:101610008BE00E94C20164EF71E080E090E00E94E4
:101620006A0260E08BE00E94C201E8CFE1E4F2E0F0
:101630001382128288EE93E0A0E0B0E08483958369
:10164000A683B7832CE031E03183208325EC30E0A2
:101650003587248724EC30E03787268720EC30E07C
:10166000318B208B21EC30E0338B228B22EC30E06D
:10167000358B248B26EC30E0378B268B118E128E27
:10168000138E148EEEEDF2E0138212828483958322
:10169000A683B7838EE191E091838083EAEEF2E046
:1016A0001382128280E391E09183808380E28483BD
:1016B00084E1818784E08287138608955058BB2790
:1016C000AA270E94760B0C94F00C0E94E20C38F0D2
:1016D0000E94E90C20F039F49F3F19F426F40C9491
:1016E000DF0C0EF4E095E7FB0C94D90CE92F0E9477
:1016F000010D58F3BA17620773078407950720F0A6
:1017000079F4A6F50C94230D0EF4E0950B2EBA2F68
:10171000A02D0B01B90190010C01CA01A0011124F7
:10172000FF27591B99F0593F50F4503E68F11A16A3
:10173000F040A22F232F342F4427585FF3CF469534
:1017400037952795A795F0405395C9F77EF41F1656
:10175000BA0B620B730B840BBAF09150A1F0FF0F20
:10176000BB1F661F771F881FC2F70EC0BA0F621F0C
:10177000731F841F48F4879577956795B795F795FC
:101780009E3F08F0B0CF9395880F08F09927EE0F91
:101790009795879508950E94B50C08F481E0089507
:1017A0000E94E40B0C94F00C0E94E90C58F00E948B
:1017B000E20C40F029F45F3F29F00C94D90C511150
:1017C0000C94240D0C94DF0C0E94010D68F39923F6
:1017D000B1F3552391F3951B550BBB27AA2762172D
:1017E0007307840738F09F5F5F4F220F331F441F3A
:1017F000AA1FA9F335D00E2E3AF0E0E832D091506E
:101800005040E695001CCAF72BD0FE2F29D0660F5A
:10181000771F881FBB1F261737074807AB07B0E89D
:1018200009F0BB0B802DBF01FF2793585F4F3AF0A3
:101830009E3F510578F00C94D90C0C94240D5F3F19
:10184000E4F3983ED4F3869577956795B795F79529
:101850009F5FC9F7880F911D9695879597F9089511
:10186000E1E0660F771F881FBB1F621773078407AD
:10187000BA0720F0621B730B840BBA0BEE1F88F7BC
:10188000E09508950E94490C6894B1110C94240DC0
:1018900008950E94090D88F09F5798F0B92F992755
:1018A000B751B0F0E1F0660F771F881F991F1AF04B
:1018B000BA95C9F714C0B13091F00E94230DB1E080
:1018C00008950C94230D672F782F8827B85F39F07F
:1018D000B93FCCF3869577956795B395D9F73EF4E4
:1018E00090958095709561957F4F8F4F9F4F08958C
:1018F000E89409C097FB3EF49095809570956195AA
:101900007F4F8F4F9F4F9923A9F0F92F96E9BB275F
:101910009395F695879577956795B795F111F8CFDB
:10192000FAF4BB0F11F460FF1BC06F5F7F4F8F4F46
:101930009F4F16C0882311F096E911C0772321F03C
:101940009EE8872F762F05C0662371F096E8862FD4
:1019500070E060E02AF09A95660F771F881FDAF72B
:10196000880F9695879597F90895990F0008550F58
:10197000AA0BE0E8FEEF16161706E807F907C0F015
:1019800012161306E407F50798F0621B730B840B1D
:10199000950B39F40A2661F0232B242B252B21F4F7
:1019A00008950A2609F4A140A6958FEF811D811D97
:1019B000089597F99F6780E870E060E008959FEFD1
:1019C00080EC089500240A941616170618060906D6
:1019D000089500240A9412161306140605060895A5
:1019E000092E0394000C11F4882352F0BB0F40F42D
:1019F000BF2B11F460FF04C06F5F7F4F8F4F9F4F6D
:101A0000089557FD9058440F551F59F05F3F71F0EE
:101A10004795880F97FB991F61F09F3F79F0879555
:101A20000895121613061406551FF2CF4695F1DFDE
:101A300008C0161617061806991FF1CF869571056E
:101A4000610508940895E894BB2766277727CB01A2
:101A500097F908950E94B50C08F48FEF08950E943D
:101A6000420D0C94F00C0E94E20C38F00E94E90C3C
:101A700020F0952311F00C94D90C0C94DF0C112458
:101A80000C94240D0E94010D70F3959FC1F3950FE6
:101A900050E0551F629FF001729FBB27F00DB11DF2
:101AA000639FAA27F00DB11DAA1F649F6627B00D82
:101AB000A11D661F829F2227B00DA11D621F739F6B
:101AC000B00DA11D621F839FA00D611D221F749F79
:101AD0003327A00D611D231F849F600D211D822FC0
:101AE000762F6A2F11249F5750409AF0F1F08823E7
:101AF0004AF0EE0FFF1FBB1F661F771F881F915014
:101B00005040A9F79E3F510580F00C94D90C0C94DD
:101B1000240D5F3FE4F3983ED4F38695779567955F
:101B2000B795F795E7959F5FC1F7FE2B880F911D3D
:101B30009695879597F908950E94B50C880B990B97
:101B40000895A1E21A2EAA1BBB1BFD010DC0AA1FFE
:101B5000BB1FEE1FFF1FA217B307E407F50720F016
:101B6000A21BB30BE40BF50B661F771F881F991F91
:101B70001A9469F760957095809590959B01AC01DA
:101B8000BD01CF010895EE0FFF1F0590F491E02DE8
:101B9000099481E090E0F8940C94CE0DF894FFCF76
:101BA00000004000140054000000000026019300D3
:101BB000BE006D01EF00CD00E100000000002C032D
:101BC000FC02DA03D602F402E502D70200000000AC
:101BD000E4059300DA03D9036E616E00696E660056
:101BE0006F766600447261696E61676520436C655B
:101BF000616E65720054656D703A0009000D0A004F
:101C00004761733A00446973743A20006F006300BF
:101C10004869676820436C6F67204C6576656C0087
:101C20005361666520447261696E204C6576656C0F
:021C3000200092
:107E0000112484B714BE81FFF0D085E080938100F7
:107E100082E08093C00088E18093C10086E0809377
:107E2000C20080E18093C4008EE0C9D0259A86E02C
:107E300020E33CEF91E0309385002093840096BBD3
:107E4000B09BFECF1D9AA8958150A9F7CC24DD24C4
:107E500088248394B5E0AB2EA1E19A2EF3E0BF2EE7
:107E6000A2D0813461F49FD0082FAFD0023811F036
:107E7000013811F484E001C083E08DD089C08234E0
:107E800011F484E103C0853419F485E0A6D080C0E4
:107E9000853579F488D0E82EFF2485D0082F10E0AE
:107EA000102F00270E291F29000F111F8ED06801E7
:107EB0006FC0863521F484E090D080E0DECF843638
:107EC00009F040C070D06FD0082F6DD080E0C81688
:107ED00080E7D80618F4F601B7BEE895C0E0D1E017
:107EE00062D089930C17E1F7F0E0CF16F0E7DF06D8
:107EF00018F0F601B7BEE89568D007B600FCFDCFD4
:107F0000A601A0E0B1E02C9130E011968C91119780
:107F100090E0982F8827822B932B1296FA010C0160
:107F200087BEE89511244E5F5F4FF1E0A038BF0790
:107F300051F7F601A7BEE89507B600FCFDCF97BE46
:107F4000E89526C08437B1F42ED02DD0F82E2BD052
:107F50003CD0F601EF2C8F010F5F1F4F84911BD097
:107F6000EA94F801C1F70894C11CD11CFA94CF0C13
:107F7000D11C0EC0853739F428D08EE10CD085E9AC
:107F80000AD08FE07ACF813511F488E018D01DD067
:107F900080E101D065CF982F8091C00085FFFCCF94
:107FA0009093C60008958091C00087FFFCCF809118
:107FB000C00084FD01C0A8958091C6000895E0E648
:107FC000F0E098E1908380830895EDDF803219F02E
:107FD00088E0F5DFFFCF84E1DECF1F93182FE3DFCA
:107FE0001150E9F7F2DF1F91089580E0E8DFEE27F6
:047FF000FF270994CA
:027FFE00040479
:0400000300007E007B
:00000001FF
