:100000000C9462000C948A000C948A000C948A0070
:100010000C948A000C948A000C948A000C948A0038
:100020000C948A000C948A000C948A000C948A0028
:100030000C948A000C948A000C948A000C948A0018
:100040000C9480040C948A000C944E040C942804A4
:100050000C948A000C948A000C948A000C948A00F8
:100060000C94F1040C948A00000000002400270086
:100070002A0000000000250028002B0000000000DE
:1000800023002600290004040404040404040202DA
:100090000202020203030303030301020408102007
:1000A0004080010204081020010204081020000012
:1000B0000008000201000003040700000000000027
:1000C0000000FB0A11241FBECFEFD8E0DEBFCDBF7A
:1000D00011E0A0E0B1E0EAE6FBE102C005900D927C
:1000E000A23BB107D9F723E0A2EBB1E001C01D921A
:1000F000A231B207E1F710E0C2E6D0E004C02197D8
:10010000FE010E94A80DC136D107C9F70E947B07E6
:100110000C94B30D0C940000CF92DF92EF92FF92FB
:100120000F931F93CF93DF936C017A018B01C0E093
:10013000D0E0CE15DF0589F0D8016D918D01D60193
:10014000ED91FC910190F081E02DC6010995892B7C
:1001500011F47E0102C02196ECCFC701DF91CF914F
:100160001F910F91FF90EF90DF90CF900895FC01C9
:10017000538D448D252F30E0842F90E0821B930B0C
:10018000541710F0CF96089501970895FC01918DB2
:10019000828D981761F0828DDF01A80FB11D5D96E9
:1001A0008C91928D9F5F9F73928F90E008958FEF57
:1001B0009FEF0895FC01918D828D981731F0828D0B
:1001C000E80FF11D858D90E008958FEF9FEF089562
:1001D000FC01918D228D892F90E0805C9F4F821BC6
:1001E00091098F73992708958DE592E00E94E800A8
:1001F00021E0892B09F420E0822F0895FC01848DF1
:10020000DF01A80FB11DA35ABF4F2C91848D90E040
:1002100001968F739927848FA689B7892C93A0891B
:10022000B1898C9180648C93938D848D981306C0D2
:100230000288F389E02D80818F7D80830895EF927D
:10024000FF920F931F93CF93DF93EC0181E0888F90
:100250009B8D8C8D981305C0E889F989808185FD77
:1002600024C0F62E0B8D10E00F5F1F4F0F73112768
:10027000E02E8C8DE8120CC00FB607FCFACFE8898F
:10028000F989808185FFF5CFCE010E94FE00F1CF74
:100290008B8DFE01E80FF11DE35AFF4FF0820B8FAB
:1002A000EA89FB898081806207C0EE89FF896083CB
:1002B000E889F98980818064808381E090E0DF9122
:1002C000CF911F910F91FF90EF900895CF93DF93FF
:1002D000EC01888D8823C9F0EA89FB89808185FD3E
:1002E00005C0A889B9898C9186FD0FC00FB607FC9F
:1002F000F5CF808185FFF2CFA889B9898C9185FFE0
:10030000EDCFCE010E94FE00E7CFDF91CF9108959F
:1003100080E090E0892B29F00E94F40081110C9478
:1003200000000895833081F028F4813099F0823004
:10033000A1F008958730A9F08830B9F08430D1F465
:10034000809180008F7D03C0809180008F778093A3
:100350008000089584B58F7702C084B58F7D84BDF9
:1003600008958091B0008F7703C08091B0008F7D99
:100370008093B00008951F93CF93DF93282F30E030
:10038000F901E255FF4F8491F901E656FF4FD491F0
:10039000F901EA57FF4FC491CC23C9F0162F811100
:1003A0000E949201EC2FF0E0EE0FFF1FEE58FF4F7E
:1003B000A591B4918FB7F894111105C09C91ED2FC0
:1003C000E095E92302C0EC91ED2BEC938FBFDF9118
:1003D000CF911F910895CF93DF9390E0FC01E656F3
:1003E000FF4F2491FC01EA57FF4F8491882361F16C
:1003F00090E0880F991FFC01E859FF4FC591D491F7
:10040000FC01EE58FF4FA591B491611109C09FB74F
:10041000F8948881209582238883EC912E230BC049
:10042000623061F49FB7F8943881822F80958323DE
:100430008883EC912E2B2C939FBF06C08FB7F89426
:10044000E8812E2B28838FBFDF91CF9108953FB78E
:10045000F8948091440290914502A0914602B09197
:10046000470226B5A89B05C02F3F19F00196A11D94
:10047000B11D3FBFBA2FA92F982F8827820F911D3A
:10048000A11DB11DBC01CD0142E0660F771F881F81
:10049000991F4A95D1F708958F929F92AF92BF927C
:1004A000CF92DF92EF92FF926B017C010E942702B4
:1004B0004B015C01C114D104E104F104F1F00E948C
:1004C0002702DC01CB0188199909AA09BB09883EDA
:1004D0009340A105B10570F321E0C21AD108E108EB
:1004E000F10888EE880E83E0981EA11CB11CC1148F
:1004F000D104E104F10419F7DDCFFF90EF90DF9014
:10050000CF90BF90AF909F908F90089585ED80938E
:10051000BC008091BC0084FDFCCF10924A0208957B
:100520004091D401262F30E0240F311D21323105B6
:10053000DCF420914A022430C9F4FC0180E090E010
:10054000861758F43091D4012191DC01AE54BE4F8E
:10055000A30FB11D2C930196F3CF8091D401680FA6
:100560006093D40180E0089581E0089582E00895C9
:10057000089581E090E030914E0220914D023217B3
:1005800010F480E090E09195819591090895809113
:100590004E0290914D02891730F48F5F80934E0286
:1005A00080E090E008958FEF9FEF089580914D02D5
:1005B00090E020914E02821B91090895CF92DF9224
:1005C000EF92FF920F931F93CF93DF937C01262F1F
:1005D000972F8A0180911D02882391F0C62FD72F73
:1005E0006E01C40ED51ECC15DD0571F06991D701E1
:1005F000ED91FC910190F081E02DC7010995F3CFB9
:10060000642F822F0E949002C801DF91CF911F9129
:100610000F91FF90EF90DF90CF900895CF93DF93ED
:100620001F92CDB7DEB7698320911D022223D1F03E
:1006300020914B02203240F021E030E0FC01338376
:10064000228380E090E015C080914C02E82FF0E01A
:10065000E25EFD4F998190838F5F80934C0280937F
:100660004B0205C061E0CE0101960E94900281E03C
:1006700090E00F90DF91CF910895CF93FC01C4815A
:1006800021E020931D02C0933E0210924C02109272
:100690004B028385682B8AEF92E00E940E038091C3
:1006A0004B02813208F046C090914A029111FCCF72
:1006B00092E090934A0291E0909349029FEF9093C9
:1006C0001C0210921B0280931A02AEE1B2E02AEFE4
:1006D00031E0F9019E2F921B981718F49D91919388
:1006E000F9CF1092F9018091F901CC0FC82BC0937A
:1006F000F90180914802813061F4109248028091A2
:10070000F9018093BB008091BC0083FDF8CF85EC9C
:1007100001C085EE8093BC0080914A028230E1F3F3
:1007200080911C028F3F31F080911C02803211F0C9
:1007300080911C0210924C0210924B0210921D02EA
:10074000CF9108950F931F93CF938C01C62F0E94D2
:100750003D036C2F6460C8010E943D036C2F6B7FCA
:10076000C8010E943D0383EC90E00197F1F7CF911F
:100770001F910F910895089580E090E008950E94E0
:10078000AE0DDC01ED91FC910190F081E02D09941A
:100790006115710579F0FB0101900020E9F73197AF
:1007A000AF01461B570BDC01ED91FC910280F381F8
:1007B000E02D099480E090E008954F925F926F924F
:1007C0007F92EF92FF920F931F93CF93DF93CDB75A
:1007D000DEB7A1970FB6F894DEBF0FBECDBF7C0188
:1007E000FA01CB0119A2223008F42AE08E010F5D34
:1007F0001F4F422E512C612C712CBF01A30192017D
:100800000E94860DF901CA01015011096A3014F4E1
:10081000605D01C0695CD8016C93232B242B252BD0
:1008200061F7B801C7010E94C803A1960FB6F894FA
:10083000DEBF0FBECDBFDF91CF911F910F91FF9013
:10084000EF907F906F905F904F9008950C94C80345
:100850001F920F920FB60F9211242F933F934F9335
:100860005F936F937F938F939F93AF93BF93EF9318
:10087000FF938DE592E00E94FE00FF91EF91BF9102
:10088000AF919F918F917F916F915F914F913F9128
:100890002F910F900FBE0F901F9018951F920F92DF
:1008A0000FB60F9211242F938F939F93EF93FF9383
:1008B000E0916D02F0916E028081E0917302F091FF
:1008C000740282FD12C09081809176028F5F8F73D7
:1008D00020917702821751F0E0917602F0E0E35A1E
:1008E000FD4F958F8093760201C08081FF91EF913B
:1008F0009F918F912F910F900FBE0F901F90189581
:100900001F920F920FB60F9211242F933F938F9344
:100910009F93AF93BF938091400290914102A09129
:100920004202B091430230913F0223E0230F2D3762
:1009300020F40196A11DB11D05C026E8230F0296E3
:10094000A11DB11D20933F0280934002909341026C
:10095000A0934202B09343028091440290914502D9
:10096000A0914602B09147020196A11DB11D80934E
:10097000440290934502A0934602B0934702BF9170
:10098000AF919F918F913F912F910F900FBE0F903C
:100990001F901895FF920F931F93CF93DF931F9291
:1009A000CDB7DEB78C01F62E962F907F692F642B82
:1009B000C80149830E94A20380E1F89EB00111247E
:1009C0004981642BC8010F90DF91CF911F910F9146
:1009D000FF900C94A20341E00E94CA0481E090E0E1
:1009E00008951F920F920FB60F9211242F933F93E9
:1009F0004F935F936F937F938F939F93AF93BF9327
:100A0000EF93FF938091B900887F803609F49CC0F2
:100A100068F5883209F45BC090F4803109F454C061
:100A200038F4882309F4F6C0883009F44DC0F6C0C4
:100A3000883109F44CC0803209F45DC0EFC08034C5
:100A400009F468C048F4803309F455C0883309F0CC
:100A5000E5C080931C02D8C0803509F44FC08835AA
:100A600009F45DC0883409F0D9C0D6C0883909F4CA
:100A7000C7C0A8F4883709F467C038F4883609F489
:100A800063C0803709F460C0C9C0883809F4B8C0B1
:100A9000803909F45FC0803809F0C0C05BC0803B7A
:100AA00009F486C038F4803A09F466C0883A09F43B
:100AB0007FC0B4C0803C09F4A7C0883C09F4A4C03E
:100AC000883B09F48AC0AAC08091F90110C09091B6
:100AD0001B0280911A02981770F5E0911B0281E0C9
:100AE0008E0F80931B02F0E0E650FE4F80818093D2
:100AF000BB0085EC86C080931C028EC0E0911B0277
:100B000081E08E0F80931B028091BB00F0E0E650E5
:100B1000FE4F808390911B0280911A026EC0E0917B
:100B20001B0281E08E0F80931B028091BB00F0E0DE
:100B3000E650FE4F80838091490281116DC081E0B3
:100B40008093480284EA61C083E080934A02109255
:100B5000F801CFCF8091F801803208F051C0E091C8
:100B6000F80181E08E0F8093F8018091BB00F0E0E6
:100B7000E852FE4F8083BDCF85EC8093BC0010927D
:100B80004A028091F801803230F4E091F801F0E0FF
:100B9000E852FE4F10826091F80170E0E091D601BA
:100BA000F091D70188ED91E009951092F80136C0D7
:100BB00084E080934A021092D5011092D401E09112
:100BC000D201F091D30109958091D401811105C022
:100BD00081E08093D4011092B201E091D50181E0CF
:100BE0008E0F8093D501F0E0EE54FE4F808180930C
:100BF000BB009091D5018091D401981708F479CF6A
:100C000085E88093BC000AC085EC8093BC001092FC
:100C10004A0204C010921C020E948602FF91EF91CA
:100C2000BF91AF919F918F917F916F915F914F9104
:100C30003F912F910F900FBE0F901F901895CF935B
:100C4000DF93CDB7DEB728970FB6F894DEBF0FBE9F
:100C5000CDBF28E0E0E0F1E0DE01119601900D92B9
:100C60002A95E1F720910E03261710F46FEF620F1B
:100C7000FE013196E60FF11DE60FF11D9081682F00
:100C8000690F606840E086E093E028960FB6F8941C
:100C9000DEBF0FBECDBFDF91CF910C94CA048F92FF
:100CA0009F92AF92BF92CF92DF92EF92FF920F93FB
:100CB0001F93CF93DF93EC016A017B019A01AB0193
:100CC000C701B6010E94810D882319F065EA71E021
:100CD00027C046015701E894B7F82FEF3FEF4FE7E1
:100CE0005FE7C501B4010E94810D81110DC02FEF96
:100CF0003FEF4FE75FE7C501B4010E94B00B181644
:100D00001CF469EA71E00CC02FEF3FEF4FE75FE49E
:100D1000C701B6010E940F0D18168CF46DEA71E040
:100D2000CE01DF91CF911F910F91FF90EF90DF9057
:100D3000CF90BF90AF909F908F900C94C8032FEFEF
:100D40003FEF4FE75FECC701B6010E94B00B87FD94
:100D5000E5CF20E030E0A901C701B6010E94B00B49
:100D600087FF0AC06DE2CE010E94C1038C01F7FA31
:100D7000F094F7F8F09402C000E010E02AE037EDBC
:100D800043EA5BE3C701B6010E94440B6B017C019F
:100D90000E942E0C4B015C010E945D0C9B01AC017A
:100DA000C701B6010E94430B6B017C012AE0B5012B
:100DB000A401CE010E94DD03080F191F6EE2CE01CF
:100DC0000E94C103080F191F20E030E040E251E407
:100DD000C701B6010E94140D4B015C010E942E0C4C
:100DE0006B01E12CF12C2AE0B701A601CE010E9493
:100DF000DD03080F191FC701B6010E945D0C9B019E
:100E0000AC01C501B4010E94430B20E030E040E298
:100E100051E40E94140D0E942E0CAB0160E070E0C2
:100E20002AE0CE010E94DD03800F911FDF91CF9158
:100E30001F910F91FF90EF90DF90CF90BF90AF90F8
:100E40009F908F90089580E480937C0080917A0039
:100E5000806480937A0080917A0086FDFCCF809137
:100E600078002091790090E0922B0895CF92DF9244
:100E7000EF92FF920F931F93E82FF92F05C00150B7
:100E800011092109310961F1908196239417B9F371
:100E900005C0015011092109310911F190819623F2
:100EA0009413F7CFC12CD12CE12CF12C0AC08FEF79
:100EB000C81AD80AE80AF80A0C151D052E053F05C0
:100EC00079F080818623841791F36C2D7D2D8E2DF2
:100ED0009F2D1F910F91FF90EF90DF90CF9008957D
:100EE00060E070E080E090E01F910F91FF90EF9044
:100EF000DF90CF900895789484B5826084BD84B5E6
:100F0000816084BD85B5826085BD85B5816085BD04
:100F100080916E00816080936E00109281008091BC
:100F20008100826080938100809181008160809344
:100F30008100809180008160809380008091B10069
:100F400084608093B1008091B00081608093B00094
:100F500080917A00846080937A0080917A00826028
:100F600080937A0080917A00816080937A008091EA
:100F70007A00806880937A001092C10010924E022D
:100F800010924D0210924C0210924B0210924A02A3
:100F900081E0809349021092480261E082E10E9460
:100FA000BB0161E083E10E94BB018091B9008E7FAB
:100FB0008093B9008091B9008D7F8093B90088E457
:100FC0008093B80085E48093BC0010920B0380915D
:100FD0001003823018F098E090930B0380930E0377
:100FE00062E370E080E090E00E944C0260911103A7
:100FF00086E093E00E943D0368EE73E080E090E0BD
:101000000E944C0260E386E093E00E94A203CBE4DE
:10101000D6E4CE010197F1F760E386E093E00E9409
:10102000A2032197F1F760E386E093E00E94A20318
:1010300083E592E00197F1F760E286E093E00E9499
:10104000A20360910B03606240E086E093E00E949F
:10105000CA0484E080930C0340E06CE086E093E0F7
:101060000E94CA0440E061E086E093E00E94CA0466
:10107000CBE3DFE1CE010197F1F712E010930D030E
:1010800040E066E086E093E00E94CA0440E062E04F
:1010900086E093E00E94CA04CE010197F1F788E050
:1010A0008093110360E086E093E00E943D0340E0FE
:1010B00062E086E093E00E94CA042197F1F761E0C4
:1010C00085E00E94EB0160E086E00E94EB0161E0B8
:1010D00088E00E94EB0161E08AE00E94EB0161E0A0
:1010E00089E00E94EB0161E08BE00E94EB0161E08E
:1010F00087E00E94EB0160E084E00E94EB0161E088
:1011000083E00E94EB01E0916D02F0916E0210838A
:10111000E0916902F0916A021082E0916B02F09115
:101120006C028FEC808310927502E0917102F09155
:10113000720286E08083E0916F02F09170028081FC
:1011400080618083E0916F02F091700280818860FD
:101150008083E0916F02F0917002808180688083CB
:10116000E0916F02F091700280818F7D8083CBE3EC
:10117000DFE123E0E22EF12C33E2C32ED12C40EA52
:10118000242E40E0342E5CE8452E50E0552E62EBD4
:10119000662E60E0762E40E061E086E093E00E94FB
:1011A000CA04CE010197F1F768E371E086E093E0AD
:1011B0000E94260468EE73E080E090E00E944C02FA
:1011C00060E085E00E94BB01C7010197F1F761E093
:1011D00085E00E94BB01C6010197F1F760E085E060
:1011E0000E94BB01F1016491F2018491E82FF0E0CB
:1011F000EE0FFF1FE458FF4F8591949100E412E435
:101200002FE030E0462F0E943607611571058105F9
:10121000910549F0DC01CB010196A11DB11DBC0176
:10122000CD019F7003C060E070E0CB016093590274
:1012300070935A0280935B0290935C020E945F0C51
:1012400026E933E44BE05DE30E94140D20E030E03A
:1012500040E05FE30E94140D0E94270C7093580237
:10126000609357020E9423075C010E9423078C01B0
:10127000B501BB0C880B990B0E945F0C20E030EC91
:101280004FE754E40E94B50B20E030E048EC52E414
:101290000E94140D60935302709354028093550280
:1012A00090935602B801110F880B990B0E945F0CA6
:1012B00020E030EC4FE754E40E94B50B20E030E032
:1012C0004AEF53E40E94140D60934F027093500252
:1012D000809351029093520269E471E08DE592E0AF
:1012E0000E9426046FE471E08DE592E00E942604DE
:1012F00040914F0250915002609151027091520200
:101300008DE592E00E944F0661E571E08DE592E087
:101310000E94C80364E571E08DE592E00E94260416
:101320006FE471E08DE592E00E9426044091530243
:101330005091540260915502709156028DE592E0F1
:101340000E944F0661E571E08DE592E00E94C803BE
:1013500069E571E08DE592E00E9426046FE471E09A
:101360008DE592E00E942604409157025091580268
:101370004A01550FAA08BB08B7FE0EC06DE28DE505
:1013800092E00E94C10344275527BA014819590920
:101390006A097B092AE003C02AE0B501A4018DE5B2
:1013A00092E00E94DD0361E571E08DE592E00E942C
:1013B000C80361E571E08DE592E00E94C80361E039
:1013C00080E00E941F066DE771E086E093E00E94D6
:1013D000260468E080E00E941F0640915702509169
:1013E00058024A01550FAA08BB08B7FE0EC06DE2AD
:1013F00086E093E00E94C10344275527BA014819AB
:1014000059096A097B092AE003C02AE0B501A40151
:1014100086E093E00E94DD036BE080E00E941F06FF
:1014200040915302509154026091550270915602BE
:1014300086E093E00E944F0660E671E086E093E06C
:101440000E9426046EE080E00E941F0640914F0239
:1014500050915002609151027091520286E093E0E7
:101460000E944F0662E671E086E093E00E94260447
:1014700061E081E00E941F0680915702909158021E
:10148000883C91054CF464E671E086E093E00E94AC
:10149000260461E088E00CC08C32F1E09F079CF4E8
:1014A00064E771E086E093E00E94260461E08BE04F
:1014B0000E94BB0161E087E00E94BB0161E083E024
:1014C0000E94BB0182C0803991406CF463E871E0F6
:1014D00086E093E00E94260461E08AE00E94BB015E
:1014E00060E087E0EDCF64E971E086E093E00E9480
:1014F000260461E089E00E94BB0160E08AE00E946E
:10150000BB0160E08BE00E94BB0160E088E00E94CC
:10151000BB0160E087E00E94BB0160E083E00E94C5
:10152000BB0120E030E048E452E460915302709146
:10153000540280915502909156020E940F0D181688
:1015400074F461E08AE00E94BB0164EF71E080E026
:1015500090E00E944C0260E08AE00E94BB0120E023
:1015600030E040E252E460914F027091500280916D
:101570005102909152020E940F0D181674F461E00E
:101580008BE00E94BB0164EF71E080E090E00E947C
:101590004C0260E08BE00E94BB01F3018491EEE914
:1015A000F0E01491EAE8F0E00491002371F0811179
:1015B0000E949201E02FF0E0EE0FFF1FE458FF4F72
:1015C000A591B4918C91182349F460ED77E080E007
:1015D00090E00E944C020E948801DDCD61E08BE02A
:1015E0000E94BB0164EF71E080E090E00E944C0239
:1015F00060E08BE065CFEDE5F2E01382128288EEC9
:1016000093E0A0E0B0E084839583A683B7832CE0C9
:1016100031E03183208325EC30E03587248724ECCA
:1016200030E03787268720EC30E0318B208B21ECAF
:1016300030E0338B228B22EC30E0358B248B26EC90
:1016400030E0378B268B118E128E138E148EEAEFBC
:10165000F2E01382128284839583A683B7838EE19E
:1016600091E091838083E6E0F3E01382128280E3CD
:1016700091E09183808387E2848380E1818782E0A7
:101680008287138608955058BB27AA270E945B0BB8
:101690000C94D50C0E94C70C38F00E94CE0C20F0A0
:1016A00039F49F3F19F426F40C94C40C0EF4E09521
:1016B000E7FB0C94BE0CE92F0E94E60C58F3BA1716
:1016C000620773078407950720F079F4A6F50C9458
:1016D000080D0EF4E0950B2EBA2FA02D0B01B901C9
:1016E00090010C01CA01A0011124FF27591B99F098
:1016F000593F50F4503E68F11A16F040A22F232FA4
:10170000342F4427585FF3CF469537952795A795F3
:10171000F0405395C9F77EF41F16BA0B620B730B9A
:10172000840BBAF09150A1F0FF0FBB1F661F771F0B
:10173000881FC2F70EC0BA0F621F731F841F48F4C0
:10174000879577956795B795F7959E3F08F0B0CF49
:101750009395880F08F09927EE0F97958795089530
:101760000E949A0C08F481E008950E94C90B0C9421
:10177000D50C0E94CE0C58F00E94C70C40F029F402
:101780005F3F29F00C94BE0C51110C94090D0C9480
:10179000C40C0E94E60C68F39923B1F3552391F32E
:1017A000951B550BBB27AA2762177307840738F0D0
:1017B0009F5F5F4F220F331F441FAA1FA9F335D02D
:1017C0000E2E3AF0E0E832D091505040E695001CE1
:1017D000CAF72BD0FE2F29D0660F771F881FBB1F9B
:1017E000261737074807AB07B0E809F0BB0B802D79
:1017F000BF01FF2793585F4F3AF09E3F510578F0A5
:101800000C94BE0C0C94090D5F3FE4F3983ED4F3A6
:10181000869577956795B795F7959F5FC9F7880F78
:10182000911D9695879597F90895E1E0660F771FCA
:10183000881FBB1F621773078407BA0720F0621B5B
:10184000730B840BBA0BEE1F88F7E09508950E9486
:101850002E0C6894B1110C94090D08950E94EE0CA1
:1018600088F09F5798F0B92F9927B751B0F0E1F061
:10187000660F771F881F991F1AF0BA95C9F714C011
:10188000B13091F00E94080DB1E008950C94080D5C
:10189000672F782F8827B85F39F0B93FCCF386954A
:1018A00077956795B395D9F73EF4909580957095A7
:1018B00061957F4F8F4F9F4F0895E89409C097FB24
:1018C0003EF490958095709561957F4F8F4F9F4F17
:1018D0009923A9F0F92F96E9BB279395F69587955B
:1018E00077956795B795F111F8CFFAF4BB0F11F41E
:1018F00060FF1BC06F5F7F4F8F4F9F4F16C08823C5
:1019000011F096E911C0772321F09EE8872F762FFA
:1019100005C0662371F096E8862F70E060E02AF03B
:101920009A95660F771F881FDAF7880F9695879527
:1019300097F90895990F0008550FAA0BE0E8FEEFFC
:1019400016161706E807F907C0F012161306E40783
:10195000F50798F0621B730B840B950B39F40A267C
:1019600061F0232B242B252B21F408950A2609F45A
:10197000A140A6958FEF811D811D089597F99F675E
:1019800080E870E060E008959FEF80EC0895002407
:101990000A941616170618060906089500240A94D4
:1019A00012161306140605060895092E0394000C5A
:1019B00011F4882352F0BB0F40F4BF2B11F460FFE9
:1019C00004C06F5F7F4F8F4F9F4F089557FD905812
:1019D000440F551F59F05F3F71F04795880F97FBF3
:1019E000991F61F09F3F79F08795089512161306AD
:1019F0001406551FF2CF4695F1DF08C016161706DC
:101A00001806991FF1CF8695710561050894089510
:101A1000E894BB2766277727CB0197F908950E94A2
:101A20009A0C08F48FEF08950E94270D0C94D50CA2
:101A30000E94C70C38F00E94CE0C20F0952311F0C4
:101A40000C94BE0C0C94C40C11240C94090D0E942F
:101A5000E60C70F3959FC1F3950F50E0551F629F00
:101A6000F001729FBB27F00DB11D639FAA27F00DF7
:101A7000B11DAA1F649F6627B00DA11D661F829F1E
:101A80002227B00DA11D621F739FB00DA11D621F03
:101A9000839FA00D611D221F749F3327A00D611D20
:101AA000231F849F600D211D822F762F6A2F112402
:101AB0009F5750409AF0F1F088234AF0EE0FFF1F35
:101AC000BB1F661F771F881F91505040A9F79E3F8C
:101AD000510580F00C94BE0C0C94090D5F3FE4F3AB
:101AE000983ED4F3869577956795B795F795E795E2
:101AF0009F5FC1F7FE2B880F911D9695879597F9EB
:101B000008950E949A0C880B990B0895A1E21A2E51
:101B1000AA1BBB1BFD010DC0AA1FBB1FEE1FFF1F91
:101B2000A217B307E407F50720F0A21BB30BE40BE1
:101B3000F50B661F771F881F991F1A9469F7609528
:101B40007095809590959B01AC01BD01CF010895E2
:101B5000EE0FFF1F0590F491E02D099481E090E0D5
:0A1B6000F8940C94B30DF894FFCF35
:101B6A000000400014005400000000001F018C0017
:101B7A00B7006601E800C600DA00000000000E03A4
:101B8A00DE02BC03B802D602C702B9020000000096
:101B9A00EB048C00BC03BB03447261696E61676528
:101BAA0020436C65616E65720054656D703A000978
:101BBA00000D0A004761733A00446973743A2000C1
:101BCA006F0063004869676820436C6F67204C6543
:101BDA0076656C004D696420436C6F67204C6576AE
:101BEA00656C0041626F757420436C6F67204C65A9
:101BFA0076656C005361666520447261696E204C9B
:101C0A006576656C006E616E00696E66006F766659
:021C1A000000C8
:107E0000112484B714BE81FFF0D085E080938100F7
:107E100082E08093C00088E18093C10086E0809377
:107E2000C20080E18093C4008EE0C9D0259A86E02C
:107E300020E33CEF91E0309385002093840096BBD3
:107E4000B09BFECF1D9AA8958150A9F7CC24DD24C4
:107E500088248394B5E0AB2EA1E19A2EF3E0BF2EE7
:107E6000A2D0813461F49FD0082FAFD0023811F036
:107E7000013811F484E001C083E08DD089C08234E0
:107E800011F484E103C0853419F485E0A6D080C0E4
:107E9000853579F488D0E82EFF2485D0082F10E0AE
:107EA000102F00270E291F29000F111F8ED06801E7
:107EB0006FC0863521F484E090D080E0DECF843638
:107EC00009F040C070D06FD0082F6DD080E0C81688
:107ED00080E7D80618F4F601B7BEE895C0E0D1E017
:107EE00062D089930C17E1F7F0E0CF16F0E7DF06D8
:107EF00018F0F601B7BEE89568D007B600FCFDCFD4
:107F0000A601A0E0B1E02C9130E011968C91119780
:107F100090E0982F8827822B932B1296FA010C0160
:107F200087BEE89511244E5F5F4FF1E0A038BF0790
:107F300051F7F601A7BEE89507B600FCFDCF97BE46
:107F4000E89526C08437B1F42ED02DD0F82E2BD052
:107F50003CD0F601EF2C8F010F5F1F4F84911BD097
:107F6000EA94F801C1F70894C11CD11CFA94CF0C13
:107F7000D11C0EC0853739F428D08EE10CD085E9AC
:107F80000AD08FE07ACF813511F488E018D01DD067
:107F900080E101D065CF982F8091C00085FFFCCF94
:107FA0009093C60008958091C00087FFFCCF809118
:107FB000C00084FD01C0A8958091C6000895E0E648
:107FC000F0E098E1908380830895EDDF803219F02E
:107FD00088E0F5DFFFCF84E1DECF1F93182FE3DFCA
:107FE0001150E9F7F2DF1F91089580E0E8DFEE27F6
:047FF000FF270994CA
:027FFE00040479
:0400000300007E007B
:00000001FF
